{
  "address": "0xE2E4B01C3421A99852f0f998ab2C8F424bD14e7B",
  "abi": [
    {
      "inputs": [],
      "stateMutability": "nonpayable",
      "type": "constructor"
    },
    {
      "inputs": [],
      "name": "AccessControlBadConfirmation",
      "type": "error"
    },
    {
      "inputs": [
        {
          "internalType": "address",
          "name": "account",
          "type": "address"
        },
        {
          "internalType": "bytes32",
          "name": "neededRole",
          "type": "bytes32"
        }
      ],
      "name": "AccessControlUnauthorizedAccount",
      "type": "error"
    },
    {
      "inputs": [
        {
          "internalType": "address",
          "name": "sender",
          "type": "address"
        },
        {
          "internalType": "uint256",
          "name": "balance",
          "type": "uint256"
        },
        {
          "internalType": "uint256",
          "name": "needed",
          "type": "uint256"
        },
        {
          "internalType": "uint256",
          "name": "tokenId",
          "type": "uint256"
        }
      ],
      "name": "ERC1155InsufficientBalance",
      "type": "error"
    },
    {
      "inputs": [
        {
          "internalType": "address",
          "name": "approver",
          "type": "address"
        }
      ],
      "name": "ERC1155InvalidApprover",
      "type": "error"
    },
    {
      "inputs": [
        {
          "internalType": "uint256",
          "name": "idsLength",
          "type": "uint256"
        },
        {
          "internalType": "uint256",
          "name": "valuesLength",
          "type": "uint256"
        }
      ],
      "name": "ERC1155InvalidArrayLength",
      "type": "error"
    },
    {
      "inputs": [
        {
          "internalType": "address",
          "name": "operator",
          "type": "address"
        }
      ],
      "name": "ERC1155InvalidOperator",
      "type": "error"
    },
    {
      "inputs": [
        {
          "internalType": "address",
          "name": "receiver",
          "type": "address"
        }
      ],
      "name": "ERC1155InvalidReceiver",
      "type": "error"
    },
    {
      "inputs": [
        {
          "internalType": "address",
          "name": "sender",
          "type": "address"
        }
      ],
      "name": "ERC1155InvalidSender",
      "type": "error"
    },
    {
      "inputs": [
        {
          "internalType": "address",
          "name": "operator",
          "type": "address"
        },
        {
          "internalType": "address",
          "name": "owner",
          "type": "address"
        }
      ],
      "name": "ERC1155MissingApprovalForAll",
      "type": "error"
    },
    {
      "inputs": [
        {
          "internalType": "address",
          "name": "owner",
          "type": "address"
        }
      ],
      "name": "OwnableInvalidOwner",
      "type": "error"
    },
    {
      "inputs": [
        {
          "internalType": "address",
          "name": "account",
          "type": "address"
        }
      ],
      "name": "OwnableUnauthorizedAccount",
      "type": "error"
    },
    {
      "anonymous": false,
      "inputs": [
        {
          "indexed": true,
          "internalType": "address",
          "name": "account",
          "type": "address"
        },
        {
          "indexed": true,
          "internalType": "address",
          "name": "operator",
          "type": "address"
        },
        {
          "indexed": false,
          "internalType": "bool",
          "name": "approved",
          "type": "bool"
        }
      ],
      "name": "ApprovalForAll",
      "type": "event"
    },
    {
      "anonymous": false,
      "inputs": [
        {
          "indexed": true,
          "internalType": "address",
          "name": "previousOwner",
          "type": "address"
        },
        {
          "indexed": true,
          "internalType": "address",
          "name": "newOwner",
          "type": "address"
        }
      ],
      "name": "OwnershipTransferred",
      "type": "event"
    },
    {
      "anonymous": false,
      "inputs": [
        {
          "indexed": false,
          "internalType": "uint256",
          "name": "propertyId",
          "type": "uint256"
        },
        {
          "indexed": false,
          "internalType": "string",
          "name": "name",
          "type": "string"
        }
      ],
      "name": "PropertyAdded",
      "type": "event"
    },
    {
      "anonymous": false,
      "inputs": [
        {
          "indexed": false,
          "internalType": "address",
          "name": "player",
          "type": "address"
        },
        {
          "indexed": false,
          "internalType": "uint256",
          "name": "propertyId",
          "type": "uint256"
        }
      ],
      "name": "PropertyPurchased",
      "type": "event"
    },
    {
      "anonymous": false,
      "inputs": [
        {
          "indexed": true,
          "internalType": "bytes32",
          "name": "role",
          "type": "bytes32"
        },
        {
          "indexed": true,
          "internalType": "bytes32",
          "name": "previousAdminRole",
          "type": "bytes32"
        },
        {
          "indexed": true,
          "internalType": "bytes32",
          "name": "newAdminRole",
          "type": "bytes32"
        }
      ],
      "name": "RoleAdminChanged",
      "type": "event"
    },
    {
      "anonymous": false,
      "inputs": [
        {
          "indexed": true,
          "internalType": "bytes32",
          "name": "role",
          "type": "bytes32"
        },
        {
          "indexed": true,
          "internalType": "address",
          "name": "account",
          "type": "address"
        },
        {
          "indexed": true,
          "internalType": "address",
          "name": "sender",
          "type": "address"
        }
      ],
      "name": "RoleGranted",
      "type": "event"
    },
    {
      "anonymous": false,
      "inputs": [
        {
          "indexed": true,
          "internalType": "bytes32",
          "name": "role",
          "type": "bytes32"
        },
        {
          "indexed": true,
          "internalType": "address",
          "name": "account",
          "type": "address"
        },
        {
          "indexed": true,
          "internalType": "address",
          "name": "sender",
          "type": "address"
        }
      ],
      "name": "RoleRevoked",
      "type": "event"
    },
    {
      "anonymous": false,
      "inputs": [
        {
          "indexed": true,
          "internalType": "address",
          "name": "operator",
          "type": "address"
        },
        {
          "indexed": true,
          "internalType": "address",
          "name": "from",
          "type": "address"
        },
        {
          "indexed": true,
          "internalType": "address",
          "name": "to",
          "type": "address"
        },
        {
          "indexed": false,
          "internalType": "uint256[]",
          "name": "ids",
          "type": "uint256[]"
        },
        {
          "indexed": false,
          "internalType": "uint256[]",
          "name": "values",
          "type": "uint256[]"
        }
      ],
      "name": "TransferBatch",
      "type": "event"
    },
    {
      "anonymous": false,
      "inputs": [
        {
          "indexed": true,
          "internalType": "address",
          "name": "operator",
          "type": "address"
        },
        {
          "indexed": true,
          "internalType": "address",
          "name": "from",
          "type": "address"
        },
        {
          "indexed": true,
          "internalType": "address",
          "name": "to",
          "type": "address"
        },
        {
          "indexed": false,
          "internalType": "uint256",
          "name": "id",
          "type": "uint256"
        },
        {
          "indexed": false,
          "internalType": "uint256",
          "name": "value",
          "type": "uint256"
        }
      ],
      "name": "TransferSingle",
      "type": "event"
    },
    {
      "anonymous": false,
      "inputs": [
        {
          "indexed": false,
          "internalType": "string",
          "name": "value",
          "type": "string"
        },
        {
          "indexed": true,
          "internalType": "uint256",
          "name": "id",
          "type": "uint256"
        }
      ],
      "name": "URI",
      "type": "event"
    },
    {
      "inputs": [],
      "name": "DEFAULT_ADMIN_ROLE",
      "outputs": [
        {
          "internalType": "bytes32",
          "name": "",
          "type": "bytes32"
        }
      ],
      "stateMutability": "view",
      "type": "function"
    },
    {
      "inputs": [],
      "name": "METROPOLIS_MINTER_ROLE",
      "outputs": [
        {
          "internalType": "bytes32",
          "name": "",
          "type": "bytes32"
        }
      ],
      "stateMutability": "view",
      "type": "function"
    },
    {
      "inputs": [],
      "name": "MONOPOLY_MONEY_ID",
      "outputs": [
        {
          "internalType": "uint256",
          "name": "",
          "type": "uint256"
        }
      ],
      "stateMutability": "view",
      "type": "function"
    },
    {
      "inputs": [
        {
          "internalType": "uint256",
          "name": "id",
          "type": "uint256"
        },
        {
          "internalType": "string",
          "name": "name",
          "type": "string"
        },
        {
          "internalType": "uint256",
          "name": "price",
          "type": "uint256"
        },
        {
          "internalType": "uint256[]",
          "name": "rentLevels",
          "type": "uint256[]"
        }
      ],
      "name": "addProperty",
      "outputs": [],
      "stateMutability": "nonpayable",
      "type": "function"
    },
    {
      "inputs": [
        {
          "internalType": "address",
          "name": "account",
          "type": "address"
        },
        {
          "internalType": "uint256",
          "name": "id",
          "type": "uint256"
        }
      ],
      "name": "balanceOf",
      "outputs": [
        {
          "internalType": "uint256",
          "name": "",
          "type": "uint256"
        }
      ],
      "stateMutability": "view",
      "type": "function"
    },
    {
      "inputs": [
        {
          "internalType": "address[]",
          "name": "accounts",
          "type": "address[]"
        },
        {
          "internalType": "uint256[]",
          "name": "ids",
          "type": "uint256[]"
        }
      ],
      "name": "balanceOfBatch",
      "outputs": [
        {
          "internalType": "uint256[]",
          "name": "",
          "type": "uint256[]"
        }
      ],
      "stateMutability": "view",
      "type": "function"
    },
    {
      "inputs": [
        {
          "internalType": "uint256",
          "name": "propertyId",
          "type": "uint256"
        }
      ],
      "name": "buyProperty",
      "outputs": [],
      "stateMutability": "nonpayable",
      "type": "function"
    },
    {
      "inputs": [],
      "name": "getAllProperties",
      "outputs": [
        {
          "components": [
            {
              "internalType": "string",
              "name": "name",
              "type": "string"
            },
            {
              "internalType": "uint256",
              "name": "price",
              "type": "uint256"
            },
            {
              "internalType": "uint256[]",
              "name": "rentLevels",
              "type": "uint256[]"
            }
          ],
          "internalType": "struct Metropolis.Property[]",
          "name": "",
          "type": "tuple[]"
        }
      ],
      "stateMutability": "view",
      "type": "function"
    },
    {
      "inputs": [
        {
          "internalType": "address",
          "name": "player",
          "type": "address"
        }
      ],
      "name": "getMonopolyMoneyBalance",
      "outputs": [
        {
          "internalType": "uint256",
          "name": "",
          "type": "uint256"
        }
      ],
      "stateMutability": "view",
      "type": "function"
    },
    {
      "inputs": [
        {
          "internalType": "uint256",
          "name": "propertyId",
          "type": "uint256"
        }
      ],
      "name": "getProperty",
      "outputs": [
        {
          "components": [
            {
              "internalType": "string",
              "name": "name",
              "type": "string"
            },
            {
              "internalType": "uint256",
              "name": "price",
              "type": "uint256"
            },
            {
              "internalType": "uint256[]",
              "name": "rentLevels",
              "type": "uint256[]"
            }
          ],
          "internalType": "struct Metropolis.Property",
          "name": "",
          "type": "tuple"
        }
      ],
      "stateMutability": "view",
      "type": "function"
    },
    {
      "inputs": [
        {
          "internalType": "uint256",
          "name": "propertyId",
          "type": "uint256"
        },
        {
          "internalType": "uint256",
          "name": "level",
          "type": "uint256"
        }
      ],
      "name": "getRent",
      "outputs": [
        {
          "internalType": "uint256",
          "name": "",
          "type": "uint256"
        }
      ],
      "stateMutability": "view",
      "type": "function"
    },
    {
      "inputs": [
        {
          "internalType": "bytes32",
          "name": "role",
          "type": "bytes32"
        }
      ],
      "name": "getRoleAdmin",
      "outputs": [
        {
          "internalType": "bytes32",
          "name": "",
          "type": "bytes32"
        }
      ],
      "stateMutability": "view",
      "type": "function"
    },
    {
      "inputs": [
        {
          "internalType": "bytes32",
          "name": "role",
          "type": "bytes32"
        },
        {
          "internalType": "address",
          "name": "account",
          "type": "address"
        }
      ],
      "name": "grantRole",
      "outputs": [],
      "stateMutability": "nonpayable",
      "type": "function"
    },
    {
      "inputs": [
        {
          "internalType": "bytes32",
          "name": "role",
          "type": "bytes32"
        },
        {
          "internalType": "address",
          "name": "account",
          "type": "address"
        }
      ],
      "name": "hasRole",
      "outputs": [
        {
          "internalType": "bool",
          "name": "",
          "type": "bool"
        }
      ],
      "stateMutability": "view",
      "type": "function"
    },
    {
      "inputs": [
        {
          "internalType": "address",
          "name": "account",
          "type": "address"
        },
        {
          "internalType": "address",
          "name": "operator",
          "type": "address"
        }
      ],
      "name": "isApprovedForAll",
      "outputs": [
        {
          "internalType": "bool",
          "name": "",
          "type": "bool"
        }
      ],
      "stateMutability": "view",
      "type": "function"
    },
    {
      "inputs": [
        {
          "internalType": "address",
          "name": "to",
          "type": "address"
        },
        {
          "internalType": "uint256",
          "name": "amount",
          "type": "uint256"
        }
      ],
      "name": "mintMonopolyMoney",
      "outputs": [],
      "stateMutability": "nonpayable",
      "type": "function"
    },
    {
      "inputs": [],
      "name": "owner",
      "outputs": [
        {
          "internalType": "address",
          "name": "",
          "type": "address"
        }
      ],
      "stateMutability": "view",
      "type": "function"
    },
    {
      "inputs": [
        {
          "internalType": "uint256",
          "name": "",
          "type": "uint256"
        }
      ],
      "name": "properties",
      "outputs": [
        {
          "internalType": "string",
          "name": "name",
          "type": "string"
        },
        {
          "internalType": "uint256",
          "name": "price",
          "type": "uint256"
        }
      ],
      "stateMutability": "view",
      "type": "function"
    },
    {
      "inputs": [],
      "name": "propertyCount",
      "outputs": [
        {
          "internalType": "uint256",
          "name": "",
          "type": "uint256"
        }
      ],
      "stateMutability": "view",
      "type": "function"
    },
    {
      "inputs": [],
      "name": "renounceOwnership",
      "outputs": [],
      "stateMutability": "nonpayable",
      "type": "function"
    },
    {
      "inputs": [
        {
          "internalType": "bytes32",
          "name": "role",
          "type": "bytes32"
        },
        {
          "internalType": "address",
          "name": "callerConfirmation",
          "type": "address"
        }
      ],
      "name": "renounceRole",
      "outputs": [],
      "stateMutability": "nonpayable",
      "type": "function"
    },
    {
      "inputs": [
        {
          "internalType": "bytes32",
          "name": "role",
          "type": "bytes32"
        },
        {
          "internalType": "address",
          "name": "account",
          "type": "address"
        }
      ],
      "name": "revokeRole",
      "outputs": [],
      "stateMutability": "nonpayable",
      "type": "function"
    },
    {
      "inputs": [
        {
          "internalType": "address",
          "name": "from",
          "type": "address"
        },
        {
          "internalType": "address",
          "name": "to",
          "type": "address"
        },
        {
          "internalType": "uint256[]",
          "name": "ids",
          "type": "uint256[]"
        },
        {
          "internalType": "uint256[]",
          "name": "values",
          "type": "uint256[]"
        },
        {
          "internalType": "bytes",
          "name": "data",
          "type": "bytes"
        }
      ],
      "name": "safeBatchTransferFrom",
      "outputs": [],
      "stateMutability": "nonpayable",
      "type": "function"
    },
    {
      "inputs": [
        {
          "internalType": "address",
          "name": "from",
          "type": "address"
        },
        {
          "internalType": "address",
          "name": "to",
          "type": "address"
        },
        {
          "internalType": "uint256",
          "name": "id",
          "type": "uint256"
        },
        {
          "internalType": "uint256",
          "name": "value",
          "type": "uint256"
        },
        {
          "internalType": "bytes",
          "name": "data",
          "type": "bytes"
        }
      ],
      "name": "safeTransferFrom",
      "outputs": [],
      "stateMutability": "nonpayable",
      "type": "function"
    },
    {
      "inputs": [
        {
          "internalType": "address",
          "name": "operator",
          "type": "address"
        },
        {
          "internalType": "bool",
          "name": "approved",
          "type": "bool"
        }
      ],
      "name": "setApprovalForAll",
      "outputs": [],
      "stateMutability": "nonpayable",
      "type": "function"
    },
    {
      "inputs": [
        {
          "internalType": "string",
          "name": "newuri",
          "type": "string"
        }
      ],
      "name": "setURI",
      "outputs": [],
      "stateMutability": "nonpayable",
      "type": "function"
    },
    {
      "inputs": [
        {
          "internalType": "bytes4",
          "name": "interfaceId",
          "type": "bytes4"
        }
      ],
      "name": "supportsInterface",
      "outputs": [
        {
          "internalType": "bool",
          "name": "",
          "type": "bool"
        }
      ],
      "stateMutability": "view",
      "type": "function"
    },
    {
      "inputs": [
        {
          "internalType": "address",
          "name": "newOwner",
          "type": "address"
        }
      ],
      "name": "transferOwnership",
      "outputs": [],
      "stateMutability": "nonpayable",
      "type": "function"
    },
    {
      "inputs": [
        {
          "internalType": "uint256",
          "name": "propertyId",
          "type": "uint256"
        },
        {
          "internalType": "string",
          "name": "name",
          "type": "string"
        },
        {
          "internalType": "uint256",
          "name": "price",
          "type": "uint256"
        },
        {
          "internalType": "uint256[]",
          "name": "rentLevels",
          "type": "uint256[]"
        }
      ],
      "name": "updateProperty",
      "outputs": [],
      "stateMutability": "nonpayable",
      "type": "function"
    },
    {
      "inputs": [
        {
          "internalType": "uint256",
          "name": "",
          "type": "uint256"
        }
      ],
      "name": "uri",
      "outputs": [
        {
          "internalType": "string",
          "name": "",
          "type": "string"
        }
      ],
      "stateMutability": "view",
      "type": "function"
    }
  ],
  "transactionHash": "0x294d0c1cc41d0f83a203f73830c2cac06bc3f87c260705569f98eaa846e57819",
  "args": [],
  "numDeployments": 1,
  "solcInputHash": "a13f076d4331c00ea43b083f75bb1528",
  "bytecode": "0x608060405260006005553480156200001657600080fd5b50604080518082019091526007815266697066733a2f2f60c81b602082015233906200004281620000b1565b506001600160a01b0381166200007257604051631e4fbdf760e01b81526000600482015260240160405180910390fd5b6200007d81620000c3565b50620000aa7f88592bd859ec73467bb601bed348ec50edf7f514e3272e8cfd9e1d3f5aa0b6773362000115565b506200033b565b6002620000bf82826200026f565b5050565b600380546001600160a01b038381166001600160a01b0319831681179093556040519116919082907f8be0079c531659141344cd1fd0a4f28419497f9722a3daafe3b4186f6b6457e090600090a35050565b60008281526004602090815260408083206001600160a01b038516845290915281205460ff16620001be5760008381526004602090815260408083206001600160a01b03861684529091529020805460ff19166001179055620001753390565b6001600160a01b0316826001600160a01b0316847f2f8788117e7eff1d82e926ec794901d17c78024a50270940304540a733656f0d60405160405180910390a4506001620001c2565b5060005b92915050565b634e487b7160e01b600052604160045260246000fd5b600181811c90821680620001f357607f821691505b6020821081036200021457634e487b7160e01b600052602260045260246000fd5b50919050565b601f8211156200026a576000816000526020600020601f850160051c81016020861015620002455750805b601f850160051c820191505b81811015620002665782815560010162000251565b5050505b505050565b81516001600160401b038111156200028b576200028b620001c8565b620002a3816200029c8454620001de565b846200021a565b602080601f831160018114620002db5760008415620002c25750858301515b600019600386901b1c1916600185901b17855562000266565b600085815260208120601f198616915b828110156200030c57888601518255948401946001909101908401620002eb565b50858210156200032b5787850151600019600388901b60f8161c191681555b5050505050600190811b01905550565b612408806200034b6000396000f3fe608060405234801561001057600080fd5b50600436106101d95760003560e01c80638da5cb5b11610104578063d2fd2fa8116100a2578063f242432a11610071578063f242432a14610413578063f2fde38b14610426578063f7b1080814610439578063ff47f9141461045a57600080fd5b8063d2fd2fa81461037c578063d547741f146103da578063e985e9c5146103ed578063eb6fd66f1461040057600080fd5b8063a22cb465116100de578063a22cb46514610384578063c007700214610397578063c2e09d49146103be578063c361a335146103d157600080fd5b80638da5cb5b1461034e57806391d1485414610369578063a217fddf1461037c57600080fd5b806332665ffb1161017c578063410921301161014b57806341092130146103005780634e1273f4146103135780636fa830a614610333578063715018a61461034657600080fd5b806332665ffb146102a557806336568abe146102c55780633d51402c146102d85780633dbdff7b146102ed57600080fd5b80630e89341c116101b85780630e89341c1461023c578063248a9ca31461025c5780632eb2c2d61461027f5780632f2ff15d1461029257600080fd5b8062fdd58e146101de57806301ffc9a71461020457806302fe530514610227575b600080fd5b6101f16101ec3660046119f8565b61046d565b6040519081526020015b60405180910390f35b610217610212366004611a38565b610495565b60405190151581526020016101fb565b61023a610235366004611b13565b6104a0565b005b61024f61024a366004611b50565b6104b4565b6040516101fb9190611baf565b6101f161026a366004611b50565b60009081526004602052604090206001015490565b61023a61028d366004611c55565b610548565b61023a6102a0366004611cff565b6105b4565b6102b86102b3366004611b50565b6105df565b6040516101fb9190611da8565b61023a6102d3366004611cff565b610776565b6102e06107ae565b6040516101fb9190611dbb565b61023a6102fb366004611e1f565b610979565b6101f161030e366004611e96565b610a44565b610326610321366004611eb8565b610b31565b6040516101fb9190611f78565b61023a610341366004611b50565b610bfe565b61023a610d34565b6003546040516001600160a01b0390911681526020016101fb565b610217610377366004611cff565b610d48565b6101f1600081565b61023a610392366004611f8b565b610d73565b6101f17f88592bd859ec73467bb601bed348ec50edf7f514e3272e8cfd9e1d3f5aa0b67781565b61023a6103cc3660046119f8565b610d82565b6101f160055481565b61023a6103e8366004611cff565b610e26565b6102176103fb366004611fc7565b610e4b565b6101f161040e366004611ff1565b610e79565b61023a61042136600461200c565b610e86565b61023a610434366004611ff1565b610ee5565b61044c610447366004611b50565b610f20565b6040516101fb929190612071565b61023a610468366004611e1f565b610fc4565b6000818152602081815260408083206001600160a01b03861684529091529020545b92915050565b600061048f8261107d565b6104a86110a2565b6104b1816110cf565b50565b6060600280546104c390612093565b80601f01602080910402602001604051908101604052809291908181526020018280546104ef90612093565b801561053c5780601f106105115761010080835404028352916020019161053c565b820191906000526020600020905b81548152906001019060200180831161051f57829003601f168201915b50505050509050919050565b336001600160a01b038616811480159061056957506105678682610e4b565b155b1561059f5760405163711bec9160e11b81526001600160a01b038083166004830152871660248201526044015b60405180910390fd5b6105ac86868686866110db565b505050505050565b6000828152600460205260409020600101546105cf81611142565b6105d9838361114c565b50505050565b61060360405180606001604052806060815260200160008152602001606081525090565b604080516000808252602080830180855283519020868352600690915290839020909261063092016120c7565b60405160208183030381529060405280519060200120036106635760405162461bcd60e51b81526004016105969061213d565b6000828152600660205260409081902081516060810190925280548290829061068b90612093565b80601f01602080910402602001604051908101604052809291908181526020018280546106b790612093565b80156107045780601f106106d957610100808354040283529160200191610704565b820191906000526020600020905b8154815290600101906020018083116106e757829003601f168201915b50505050508152602001600182015481526020016002820180548060200260200160405190810160405280929190818152602001828054801561076657602002820191906000526020600020905b815481526020019060010190808311610752575b5050505050815250509050919050565b6001600160a01b038116331461079f5760405163334bd91960e11b815260040160405180910390fd5b6107a982826111e0565b505050565b6060600060055467ffffffffffffffff8111156107cd576107cd611a5c565b60405190808252806020026020018201604052801561082257816020015b61080f60405180606001604052806060815260200160008152602001606081525090565b8152602001906001900390816107eb5790505b50905060005b600554811015610973576006600061084183600161218a565b815260200190815260200160002060405180606001604052908160008201805461086a90612093565b80601f016020809104026020016040519081016040528092919081815260200182805461089690612093565b80156108e35780601f106108b8576101008083540402835291602001916108e3565b820191906000526020600020905b8154815290600101906020018083116108c657829003601f168201915b50505050508152602001600182015481526020016002820180548060200260200160405190810160405280929190818152602001828054801561094557602002820191906000526020600020905b815481526020019060010190808311610931575b5050505050815250508282815181106109605761096061219d565b6020908102919091010152600101610828565b50919050565b6109816110a2565b60408051600080825260208083018085528351902088835260069091529083902090926109ae92016120c7565b60405160208183030381529060405280519060200120036109e15760405162461bcd60e51b81526004016105969061213d565b604080516060810182528481526020808201859052818301849052600087815260069091529190912081518190610a1890826121fb565b50602082810151600183015560408301518051610a3b926002850192019061197c565b50505050505050565b604080516000808252602080830180855283519020868352600690915283822091939092610a739291016120c7565b6040516020818303038152906040528051906020012003610aa65760405162461bcd60e51b81526004016105969061213d565b6000838152600660205260409020600201548210610afb5760405162461bcd60e51b8152602060048201526012602482015271125b9d985b1a59081c995b9d081b195d995b60721b6044820152606401610596565b6000838152600660205260409020600201805483908110610b1e57610b1e61219d565b9060005260206000200154905092915050565b60608151835114610b625781518351604051635b05999160e01b815260048101929092526024820152604401610596565b6000835167ffffffffffffffff811115610b7e57610b7e611a5c565b604051908082528060200260200182016040528015610ba7578160200160208202803683370190505b50905060005b8451811015610bf657602080820286010151610bd19060208084028701015161046d565b828281518110610be357610be361219d565b6020908102919091010152600101610bad565b509392505050565b6040805160008082526020808301808552835190208583526006909152908390209092610c2b92016120c7565b6040516020818303038152906040528051906020012003610c5e5760405162461bcd60e51b81526004016105969061213d565b60008181526006602052604081206001015490610c7c90339061046d565b1015610cbf5760405162461bcd60e51b8152602060048201526012602482015271496e73756666696369656e742066756e647360701b6044820152606401610596565b600081815260066020526040812060010154610cdc91339161124d565b610cf833826001604051806020016040528060008152506112b5565b60408051338152602081018390527f3c0cade9d270c0005f089d49842bd35076264614be1ca87be18f996825d9e07c910160405180910390a150565b610d3c6110a2565b610d466000611312565b565b60009182526004602090815260408084206001600160a01b0393909316845291905290205460ff1690565b610d7e338383611364565b5050565b610dac7f88592bd859ec73467bb601bed348ec50edf7f514e3272e8cfd9e1d3f5aa0b67733610d48565b610e0a5760405162461bcd60e51b815260206004820152602960248201527f4d6574726f706f6c69733a206d7573742068617665206d696e74657220726f6c60448201526819481d1bc81b5a5b9d60ba1b6064820152608401610596565b610d7e82600083604051806020016040528060008152506112b5565b600082815260046020526040902060010154610e4181611142565b6105d983836111e0565b6001600160a01b03918216600090815260016020908152604080832093909416825291909152205460ff1690565b600061048f82600061046d565b336001600160a01b0386168114801590610ea75750610ea58682610e4b565b155b15610ed85760405163711bec9160e11b81526001600160a01b03808316600483015287166024820152604401610596565b6105ac86868686866113fa565b610eed6110a2565b6001600160a01b038116610f1757604051631e4fbdf760e01b815260006004820152602401610596565b6104b181611312565b600660205260009081526040902080548190610f3b90612093565b80601f0160208091040260200160405190810160405280929190818152602001828054610f6790612093565b8015610fb45780601f10610f8957610100808354040283529160200191610fb4565b820191906000526020600020905b815481529060010190602001808311610f9757829003601f168201915b5050505050908060010154905082565b610fcc6110a2565b60408051606081018252848152602080820185905281830184905260008781526006909152919091208151819061100390826121fb565b50602082810151600183015560408301518051611026926002850192019061197c565b50506005805491506000611039836122bb565b91905055507febf63270254042d3527778299325aabb702431e95ad5e9055f4cb3b047ecdccc848460405161106f9291906122d4565b60405180910390a150505050565b60006001600160e01b03198216637965db0b60e01b148061048f575061048f8261147f565b6003546001600160a01b03163314610d465760405163118cdaa760e01b8152336004820152602401610596565b6002610d7e82826121fb565b6001600160a01b03841661110557604051632bfa23e760e11b815260006004820152602401610596565b6001600160a01b03851661112e57604051626a0d4560e21b815260006004820152602401610596565b61113b85858585856114cf565b5050505050565b6104b18133611522565b60006111588383610d48565b6111d85760008381526004602090815260408083206001600160a01b03861684529091529020805460ff191660011790556111903390565b6001600160a01b0316826001600160a01b0316847f2f8788117e7eff1d82e926ec794901d17c78024a50270940304540a733656f0d60405160405180910390a450600161048f565b50600061048f565b60006111ec8383610d48565b156111d85760008381526004602090815260408083206001600160a01b0386168085529252808320805460ff1916905551339286917ff6391f5c32d9c69d2a47ea670b442974b53935d1edc7fd64eb21e047a839171b9190a450600161048f565b6001600160a01b03831661127657604051626a0d4560e21b815260006004820152602401610596565b604080516001808252602082018590528183019081526060820184905260a0820190925260006080820181815291929161113b918791859085906114cf565b6001600160a01b0384166112df57604051632bfa23e760e11b815260006004820152602401610596565b604080516001808252602082018690528183019081526060820185905260808201909252906105ac6000878484876114cf565b600380546001600160a01b038381166001600160a01b0319831681179093556040519116919082907f8be0079c531659141344cd1fd0a4f28419497f9722a3daafe3b4186f6b6457e090600090a35050565b6001600160a01b03821661138d5760405162ced3e160e81b815260006004820152602401610596565b6001600160a01b03838116600081815260016020908152604080832094871680845294825291829020805460ff191686151590811790915591519182527f17307eab39ab6107e8899845ad3d59bd9653f200f220920489ca2b5937696c31910160405180910390a3505050565b6001600160a01b03841661142457604051632bfa23e760e11b815260006004820152602401610596565b6001600160a01b03851661144d57604051626a0d4560e21b815260006004820152602401610596565b60408051600180825260208201869052818301908152606082018590526080820190925290610a3b87878484876114cf565b60006001600160e01b03198216636cdb3d1360e11b14806114b057506001600160e01b031982166303a24d0760e21b145b8061048f57506301ffc9a760e01b6001600160e01b031983161461048f565b6114db8585858561155b565b6001600160a01b0384161561113b5782513390600103611514576020848101519084015161150d83898985858961176f565b50506105ac565b6105ac818787878787611893565b61152c8282610d48565b610d7e5760405163e2517d3f60e01b81526001600160a01b038216600482015260248101839052604401610596565b805182511461158a5781518151604051635b05999160e01b815260048101929092526024820152604401610596565b3360005b8351811015611690576020818102858101820151908501909101516001600160a01b03881615611641576000828152602081815260408083206001600160a01b038c1684529091529020548181101561161a576040516303dee4c560e01b81526001600160a01b038a166004820152602481018290526044810183905260648101849052608401610596565b6000838152602081815260408083206001600160a01b038d16845290915290209082900390555b6001600160a01b03871615611686576000828152602081815260408083206001600160a01b038b1684529091528120805483929061168090849061218a565b90915550505b505060010161158e565b5082516001036117115760208301516000906020840151909150856001600160a01b0316876001600160a01b0316846001600160a01b03167fc3d58168c5ae7397731d063d5bbf3d657854427343f4c083240f7aacaa2d0f628585604051611702929190918252602082015260400190565b60405180910390a4505061113b565b836001600160a01b0316856001600160a01b0316826001600160a01b03167f4a39dc06d4c0dbc64b70af90fd698a233a518aa5d07e595d983b8c0526c8f7fb86866040516117609291906122ed565b60405180910390a45050505050565b6001600160a01b0384163b156105ac5760405163f23a6e6160e01b81526001600160a01b0385169063f23a6e61906117b39089908990889088908890600401612312565b6020604051808303816000875af19250505080156117ee575060408051601f3d908101601f191682019092526117eb91810190612357565b60015b611857573d80801561181c576040519150601f19603f3d011682016040523d82523d6000602084013e611821565b606091505b50805160000361184f57604051632bfa23e760e11b81526001600160a01b0386166004820152602401610596565b805181602001fd5b6001600160e01b0319811663f23a6e6160e01b14610a3b57604051632bfa23e760e11b81526001600160a01b0386166004820152602401610596565b6001600160a01b0384163b156105ac5760405163bc197c8160e01b81526001600160a01b0385169063bc197c81906118d79089908990889088908890600401612374565b6020604051808303816000875af1925050508015611912575060408051601f3d908101601f1916820190925261190f91810190612357565b60015b611940573d80801561181c576040519150601f19603f3d011682016040523d82523d6000602084013e611821565b6001600160e01b0319811663bc197c8160e01b14610a3b57604051632bfa23e760e11b81526001600160a01b0386166004820152602401610596565b8280548282559060005260206000209081019282156119b7579160200282015b828111156119b757825182559160200191906001019061199c565b506119c39291506119c7565b5090565b5b808211156119c357600081556001016119c8565b80356001600160a01b03811681146119f357600080fd5b919050565b60008060408385031215611a0b57600080fd5b611a14836119dc565b946020939093013593505050565b6001600160e01b0319811681146104b157600080fd5b600060208284031215611a4a57600080fd5b8135611a5581611a22565b9392505050565b634e487b7160e01b600052604160045260246000fd5b604051601f8201601f1916810167ffffffffffffffff81118282101715611a9b57611a9b611a5c565b604052919050565b600082601f830112611ab457600080fd5b813567ffffffffffffffff811115611ace57611ace611a5c565b611ae1601f8201601f1916602001611a72565b818152846020838601011115611af657600080fd5b816020850160208301376000918101602001919091529392505050565b600060208284031215611b2557600080fd5b813567ffffffffffffffff811115611b3c57600080fd5b611b4884828501611aa3565b949350505050565b600060208284031215611b6257600080fd5b5035919050565b6000815180845260005b81811015611b8f57602081850181015186830182015201611b73565b506000602082860101526020601f19601f83011685010191505092915050565b602081526000611a556020830184611b69565b600067ffffffffffffffff821115611bdc57611bdc611a5c565b5060051b60200190565b600082601f830112611bf757600080fd5b81356020611c0c611c0783611bc2565b611a72565b8083825260208201915060208460051b870101935086841115611c2e57600080fd5b602086015b84811015611c4a5780358352918301918301611c33565b509695505050505050565b600080600080600060a08688031215611c6d57600080fd5b611c76866119dc565b9450611c84602087016119dc565b9350604086013567ffffffffffffffff80821115611ca157600080fd5b611cad89838a01611be6565b94506060880135915080821115611cc357600080fd5b611ccf89838a01611be6565b93506080880135915080821115611ce557600080fd5b50611cf288828901611aa3565b9150509295509295909350565b60008060408385031215611d1257600080fd5b82359150611d22602084016119dc565b90509250929050565b60008151808452602080850194506020840160005b83811015611d5c57815187529582019590820190600101611d40565b509495945050505050565b6000815160608452611d7c6060850182611b69565b90506020830151602085015260408301518482036040860152611d9f8282611d2b565b95945050505050565b602081526000611a556020830184611d67565b600060208083016020845280855180835260408601915060408160051b87010192506020870160005b82811015611e1257603f19888603018452611e00858351611d67565b94509285019290850190600101611de4565b5092979650505050505050565b60008060008060808587031215611e3557600080fd5b84359350602085013567ffffffffffffffff80821115611e5457600080fd5b611e6088838901611aa3565b9450604087013593506060870135915080821115611e7d57600080fd5b50611e8a87828801611be6565b91505092959194509250565b60008060408385031215611ea957600080fd5b50508035926020909101359150565b60008060408385031215611ecb57600080fd5b823567ffffffffffffffff80821115611ee357600080fd5b818501915085601f830112611ef757600080fd5b81356020611f07611c0783611bc2565b82815260059290921b84018101918181019089841115611f2657600080fd5b948201945b83861015611f4b57611f3c866119dc565b82529482019490820190611f2b565b96505086013592505080821115611f6157600080fd5b50611f6e85828601611be6565b9150509250929050565b602081526000611a556020830184611d2b565b60008060408385031215611f9e57600080fd5b611fa7836119dc565b915060208301358015158114611fbc57600080fd5b809150509250929050565b60008060408385031215611fda57600080fd5b611fe3836119dc565b9150611d22602084016119dc565b60006020828403121561200357600080fd5b611a55826119dc565b600080600080600060a0868803121561202457600080fd5b61202d866119dc565b945061203b602087016119dc565b93506040860135925060608601359150608086013567ffffffffffffffff81111561206557600080fd5b611cf288828901611aa3565b6040815260006120846040830185611b69565b90508260208301529392505050565b600181811c908216806120a757607f821691505b60208210810361097357634e487b7160e01b600052602260045260246000fd5b60008083546120d581612093565b600182811680156120ed576001811461210257612131565b60ff1984168752821515830287019450612131565b8760005260208060002060005b858110156121285781548a82015290840190820161210f565b50505082870194505b50929695505050505050565b60208082526017908201527f50726f706572747920646f6573206e6f74206578697374000000000000000000604082015260600190565b634e487b7160e01b600052601160045260246000fd5b8082018082111561048f5761048f612174565b634e487b7160e01b600052603260045260246000fd5b601f8211156107a9576000816000526020600020601f850160051c810160208610156121dc5750805b601f850160051c820191505b818110156105ac578281556001016121e8565b815167ffffffffffffffff81111561221557612215611a5c565b612229816122238454612093565b846121b3565b602080601f83116001811461225e57600084156122465750858301515b600019600386901b1c1916600185901b1785556105ac565b600085815260208120601f198616915b8281101561228d5788860151825594840194600190910190840161226e565b50858210156122ab5787850151600019600388901b60f8161c191681555b5050505050600190811b01905550565b6000600182016122cd576122cd612174565b5060010190565b828152604060208201526000611b486040830184611b69565b6040815260006123006040830185611d2b565b8281036020840152611d9f8185611d2b565b6001600160a01b03868116825285166020820152604081018490526060810183905260a06080820181905260009061234c90830184611b69565b979650505050505050565b60006020828403121561236957600080fd5b8151611a5581611a22565b6001600160a01b0386811682528516602082015260a0604082018190526000906123a090830186611d2b565b82810360608401526123b28186611d2b565b905082810360808401526123c68185611b69565b9897505050505050505056fea26469706673582212201a83352c8a1eb851e1946249379b3ca1c1a73cc8959467c9695245943ef5027a64736f6c63430008180033",
  "devdoc": {
    "errors": {
      "AccessControlBadConfirmation()": [
        {
          "details": "The caller of a function is not the expected one. NOTE: Don't confuse with {AccessControlUnauthorizedAccount}."
        }
      ],
      "AccessControlUnauthorizedAccount(address,bytes32)": [
        {
          "details": "The `account` is missing a role."
        }
      ],
      "ERC1155InsufficientBalance(address,uint256,uint256,uint256)": [
        {
          "details": "Indicates an error related to the current `balance` of a `sender`. Used in transfers.",
          "params": {
            "balance": "Current balance for the interacting account.",
            "needed": "Minimum amount required to perform a transfer.",
            "sender": "Address whose tokens are being transferred.",
            "tokenId": "Identifier number of a token."
          }
        }
      ],
      "ERC1155InvalidApprover(address)": [
        {
          "details": "Indicates a failure with the `approver` of a token to be approved. Used in approvals.",
          "params": {
            "approver": "Address initiating an approval operation."
          }
        }
      ],
      "ERC1155InvalidArrayLength(uint256,uint256)": [
        {
          "details": "Indicates an array length mismatch between ids and values in a safeBatchTransferFrom operation. Used in batch transfers.",
          "params": {
            "idsLength": "Length of the array of token identifiers",
            "valuesLength": "Length of the array of token amounts"
          }
        }
      ],
      "ERC1155InvalidOperator(address)": [
        {
          "details": "Indicates a failure with the `operator` to be approved. Used in approvals.",
          "params": {
            "operator": "Address that may be allowed to operate on tokens without being their owner."
          }
        }
      ],
      "ERC1155InvalidReceiver(address)": [
        {
          "details": "Indicates a failure with the token `receiver`. Used in transfers.",
          "params": {
            "receiver": "Address to which tokens are being transferred."
          }
        }
      ],
      "ERC1155InvalidSender(address)": [
        {
          "details": "Indicates a failure with the token `sender`. Used in transfers.",
          "params": {
            "sender": "Address whose tokens are being transferred."
          }
        }
      ],
      "ERC1155MissingApprovalForAll(address,address)": [
        {
          "details": "Indicates a failure with the `operator`s approval. Used in transfers.",
          "params": {
            "operator": "Address that may be allowed to operate on tokens without being their owner.",
            "owner": "Address of the current owner of a token."
          }
        }
      ],
      "OwnableInvalidOwner(address)": [
        {
          "details": "The owner is not a valid owner account. (eg. `address(0)`)"
        }
      ],
      "OwnableUnauthorizedAccount(address)": [
        {
          "details": "The caller account is not authorized to perform an operation."
        }
      ]
    },
    "events": {
      "ApprovalForAll(address,address,bool)": {
        "details": "Emitted when `account` grants or revokes permission to `operator` to transfer their tokens, according to `approved`."
      },
      "RoleAdminChanged(bytes32,bytes32,bytes32)": {
        "details": "Emitted when `newAdminRole` is set as ``role``'s admin role, replacing `previousAdminRole` `DEFAULT_ADMIN_ROLE` is the starting admin for all roles, despite {RoleAdminChanged} not being emitted signaling this."
      },
      "RoleGranted(bytes32,address,address)": {
        "details": "Emitted when `account` is granted `role`. `sender` is the account that originated the contract call. This account bears the admin role (for the granted role). Expected in cases where the role was granted using the internal {AccessControl-_grantRole}."
      },
      "RoleRevoked(bytes32,address,address)": {
        "details": "Emitted when `account` is revoked `role`. `sender` is the account that originated the contract call:   - if using `revokeRole`, it is the admin role bearer   - if using `renounceRole`, it is the role bearer (i.e. `account`)"
      },
      "TransferBatch(address,address,address,uint256[],uint256[])": {
        "details": "Equivalent to multiple {TransferSingle} events, where `operator`, `from` and `to` are the same for all transfers."
      },
      "TransferSingle(address,address,address,uint256,uint256)": {
        "details": "Emitted when `value` amount of tokens of type `id` are transferred from `from` to `to` by `operator`."
      },
      "URI(string,uint256)": {
        "details": "Emitted when the URI for token type `id` changes to `value`, if it is a non-programmatic URI. If an {URI} event was emitted for `id`, the standard https://eips.ethereum.org/EIPS/eip-1155#metadata-extensions[guarantees] that `value` will equal the value returned by {IERC1155MetadataURI-uri}."
      }
    },
    "kind": "dev",
    "methods": {
      "balanceOf(address,uint256)": {
        "details": "See {IERC1155-balanceOf}."
      },
      "balanceOfBatch(address[],uint256[])": {
        "details": "See {IERC1155-balanceOfBatch}. Requirements: - `accounts` and `ids` must have the same length."
      },
      "getRoleAdmin(bytes32)": {
        "details": "Returns the admin role that controls `role`. See {grantRole} and {revokeRole}. To change a role's admin, use {_setRoleAdmin}."
      },
      "grantRole(bytes32,address)": {
        "details": "Grants `role` to `account`. If `account` had not been already granted `role`, emits a {RoleGranted} event. Requirements: - the caller must have ``role``'s admin role. May emit a {RoleGranted} event."
      },
      "hasRole(bytes32,address)": {
        "details": "Returns `true` if `account` has been granted `role`."
      },
      "isApprovedForAll(address,address)": {
        "details": "See {IERC1155-isApprovedForAll}."
      },
      "owner()": {
        "details": "Returns the address of the current owner."
      },
      "renounceOwnership()": {
        "details": "Leaves the contract without owner. It will not be possible to call `onlyOwner` functions. Can only be called by the current owner. NOTE: Renouncing ownership will leave the contract without an owner, thereby disabling any functionality that is only available to the owner."
      },
      "renounceRole(bytes32,address)": {
        "details": "Revokes `role` from the calling account. Roles are often managed via {grantRole} and {revokeRole}: this function's purpose is to provide a mechanism for accounts to lose their privileges if they are compromised (such as when a trusted device is misplaced). If the calling account had been revoked `role`, emits a {RoleRevoked} event. Requirements: - the caller must be `callerConfirmation`. May emit a {RoleRevoked} event."
      },
      "revokeRole(bytes32,address)": {
        "details": "Revokes `role` from `account`. If `account` had been granted `role`, emits a {RoleRevoked} event. Requirements: - the caller must have ``role``'s admin role. May emit a {RoleRevoked} event."
      },
      "safeBatchTransferFrom(address,address,uint256[],uint256[],bytes)": {
        "details": "See {IERC1155-safeBatchTransferFrom}."
      },
      "safeTransferFrom(address,address,uint256,uint256,bytes)": {
        "details": "See {IERC1155-safeTransferFrom}."
      },
      "setApprovalForAll(address,bool)": {
        "details": "See {IERC1155-setApprovalForAll}."
      },
      "transferOwnership(address)": {
        "details": "Transfers ownership of the contract to a new account (`newOwner`). Can only be called by the current owner."
      },
      "uri(uint256)": {
        "details": "See {IERC1155MetadataURI-uri}. This implementation returns the same URI for *all* token types. It relies on the token type ID substitution mechanism https://eips.ethereum.org/EIPS/eip-1155#metadata[defined in the ERC]. Clients calling this function must replace the `\\{id\\}` substring with the actual token type ID."
      }
    },
    "version": 1
  },
  "userdoc": {
    "kind": "user",
    "methods": {},
    "version": 1
  },
  "storageLayout": {
    "storage": [
      {
        "astId": 705,
        "contract": "contracts/Metropolis.sol:Metropolis",
        "label": "_balances",
        "offset": 0,
        "slot": "0",
        "type": "t_mapping(t_uint256,t_mapping(t_address,t_uint256))"
      },
      {
        "astId": 711,
        "contract": "contracts/Metropolis.sol:Metropolis",
        "label": "_operatorApprovals",
        "offset": 0,
        "slot": "1",
        "type": "t_mapping(t_address,t_mapping(t_address,t_bool))"
      },
      {
        "astId": 713,
        "contract": "contracts/Metropolis.sol:Metropolis",
        "label": "_uri",
        "offset": 0,
        "slot": "2",
        "type": "t_string_storage"
      },
      {
        "astId": 387,
        "contract": "contracts/Metropolis.sol:Metropolis",
        "label": "_owner",
        "offset": 0,
        "slot": "3",
        "type": "t_address"
      },
      {
        "astId": 26,
        "contract": "contracts/Metropolis.sol:Metropolis",
        "label": "_roles",
        "offset": 0,
        "slot": "4",
        "type": "t_mapping(t_bytes32,t_struct(RoleData)21_storage)"
      },
      {
        "astId": 6590,
        "contract": "contracts/Metropolis.sol:Metropolis",
        "label": "propertyCount",
        "offset": 0,
        "slot": "5",
        "type": "t_uint256"
      },
      {
        "astId": 6603,
        "contract": "contracts/Metropolis.sol:Metropolis",
        "label": "properties",
        "offset": 0,
        "slot": "6",
        "type": "t_mapping(t_uint256,t_struct(Property)6598_storage)"
      }
    ],
    "types": {
      "t_address": {
        "encoding": "inplace",
        "label": "address",
        "numberOfBytes": "20"
      },
      "t_array(t_uint256)dyn_storage": {
        "base": "t_uint256",
        "encoding": "dynamic_array",
        "label": "uint256[]",
        "numberOfBytes": "32"
      },
      "t_bool": {
        "encoding": "inplace",
        "label": "bool",
        "numberOfBytes": "1"
      },
      "t_bytes32": {
        "encoding": "inplace",
        "label": "bytes32",
        "numberOfBytes": "32"
      },
      "t_mapping(t_address,t_bool)": {
        "encoding": "mapping",
        "key": "t_address",
        "label": "mapping(address => bool)",
        "numberOfBytes": "32",
        "value": "t_bool"
      },
      "t_mapping(t_address,t_mapping(t_address,t_bool))": {
        "encoding": "mapping",
        "key": "t_address",
        "label": "mapping(address => mapping(address => bool))",
        "numberOfBytes": "32",
        "value": "t_mapping(t_address,t_bool)"
      },
      "t_mapping(t_address,t_uint256)": {
        "encoding": "mapping",
        "key": "t_address",
        "label": "mapping(address => uint256)",
        "numberOfBytes": "32",
        "value": "t_uint256"
      },
      "t_mapping(t_bytes32,t_struct(RoleData)21_storage)": {
        "encoding": "mapping",
        "key": "t_bytes32",
        "label": "mapping(bytes32 => struct AccessControl.RoleData)",
        "numberOfBytes": "32",
        "value": "t_struct(RoleData)21_storage"
      },
      "t_mapping(t_uint256,t_mapping(t_address,t_uint256))": {
        "encoding": "mapping",
        "key": "t_uint256",
        "label": "mapping(uint256 => mapping(address => uint256))",
        "numberOfBytes": "32",
        "value": "t_mapping(t_address,t_uint256)"
      },
      "t_mapping(t_uint256,t_struct(Property)6598_storage)": {
        "encoding": "mapping",
        "key": "t_uint256",
        "label": "mapping(uint256 => struct Metropolis.Property)",
        "numberOfBytes": "32",
        "value": "t_struct(Property)6598_storage"
      },
      "t_string_storage": {
        "encoding": "bytes",
        "label": "string",
        "numberOfBytes": "32"
      },
      "t_struct(Property)6598_storage": {
        "encoding": "inplace",
        "label": "struct Metropolis.Property",
        "members": [
          {
            "astId": 6592,
            "contract": "contracts/Metropolis.sol:Metropolis",
            "label": "name",
            "offset": 0,
            "slot": "0",
            "type": "t_string_storage"
          },
          {
            "astId": 6594,
            "contract": "contracts/Metropolis.sol:Metropolis",
            "label": "price",
            "offset": 0,
            "slot": "1",
            "type": "t_uint256"
          },
          {
            "astId": 6597,
            "contract": "contracts/Metropolis.sol:Metropolis",
            "label": "rentLevels",
            "offset": 0,
            "slot": "2",
            "type": "t_array(t_uint256)dyn_storage"
          }
        ],
        "numberOfBytes": "96"
      },
      "t_struct(RoleData)21_storage": {
        "encoding": "inplace",
        "label": "struct AccessControl.RoleData",
        "members": [
          {
            "astId": 18,
            "contract": "contracts/Metropolis.sol:Metropolis",
            "label": "hasRole",
            "offset": 0,
            "slot": "0",
            "type": "t_mapping(t_address,t_bool)"
          },
          {
            "astId": 20,
            "contract": "contracts/Metropolis.sol:Metropolis",
            "label": "adminRole",
            "offset": 0,
            "slot": "1",
            "type": "t_bytes32"
          }
        ],
        "numberOfBytes": "64"
      },
      "t_uint256": {
        "encoding": "inplace",
        "label": "uint256",
        "numberOfBytes": "32"
      }
    }
  }
}