{
  "address": "0x1afBcD65198E8d7F75800bE2A72e92d5A7d475a7",
  "abi": [
    {
      "inputs": [],
      "stateMutability": "nonpayable",
      "type": "constructor"
    },
    {
      "inputs": [],
      "name": "AccessControlBadConfirmation",
      "type": "error"
    },
    {
      "inputs": [
        {
          "internalType": "address",
          "name": "account",
          "type": "address"
        },
        {
          "internalType": "bytes32",
          "name": "neededRole",
          "type": "bytes32"
        }
      ],
      "name": "AccessControlUnauthorizedAccount",
      "type": "error"
    },
    {
      "inputs": [
        {
          "internalType": "address",
          "name": "sender",
          "type": "address"
        },
        {
          "internalType": "uint256",
          "name": "balance",
          "type": "uint256"
        },
        {
          "internalType": "uint256",
          "name": "needed",
          "type": "uint256"
        },
        {
          "internalType": "uint256",
          "name": "tokenId",
          "type": "uint256"
        }
      ],
      "name": "ERC1155InsufficientBalance",
      "type": "error"
    },
    {
      "inputs": [
        {
          "internalType": "address",
          "name": "approver",
          "type": "address"
        }
      ],
      "name": "ERC1155InvalidApprover",
      "type": "error"
    },
    {
      "inputs": [
        {
          "internalType": "uint256",
          "name": "idsLength",
          "type": "uint256"
        },
        {
          "internalType": "uint256",
          "name": "valuesLength",
          "type": "uint256"
        }
      ],
      "name": "ERC1155InvalidArrayLength",
      "type": "error"
    },
    {
      "inputs": [
        {
          "internalType": "address",
          "name": "operator",
          "type": "address"
        }
      ],
      "name": "ERC1155InvalidOperator",
      "type": "error"
    },
    {
      "inputs": [
        {
          "internalType": "address",
          "name": "receiver",
          "type": "address"
        }
      ],
      "name": "ERC1155InvalidReceiver",
      "type": "error"
    },
    {
      "inputs": [
        {
          "internalType": "address",
          "name": "sender",
          "type": "address"
        }
      ],
      "name": "ERC1155InvalidSender",
      "type": "error"
    },
    {
      "inputs": [
        {
          "internalType": "address",
          "name": "operator",
          "type": "address"
        },
        {
          "internalType": "address",
          "name": "owner",
          "type": "address"
        }
      ],
      "name": "ERC1155MissingApprovalForAll",
      "type": "error"
    },
    {
      "inputs": [
        {
          "internalType": "address",
          "name": "owner",
          "type": "address"
        }
      ],
      "name": "OwnableInvalidOwner",
      "type": "error"
    },
    {
      "inputs": [
        {
          "internalType": "address",
          "name": "account",
          "type": "address"
        }
      ],
      "name": "OwnableUnauthorizedAccount",
      "type": "error"
    },
    {
      "anonymous": false,
      "inputs": [
        {
          "indexed": true,
          "internalType": "address",
          "name": "account",
          "type": "address"
        },
        {
          "indexed": true,
          "internalType": "address",
          "name": "operator",
          "type": "address"
        },
        {
          "indexed": false,
          "internalType": "bool",
          "name": "approved",
          "type": "bool"
        }
      ],
      "name": "ApprovalForAll",
      "type": "event"
    },
    {
      "anonymous": false,
      "inputs": [
        {
          "indexed": true,
          "internalType": "address",
          "name": "previousOwner",
          "type": "address"
        },
        {
          "indexed": true,
          "internalType": "address",
          "name": "newOwner",
          "type": "address"
        }
      ],
      "name": "OwnershipTransferred",
      "type": "event"
    },
    {
      "anonymous": false,
      "inputs": [
        {
          "indexed": false,
          "internalType": "uint256",
          "name": "propertyId",
          "type": "uint256"
        },
        {
          "indexed": false,
          "internalType": "string",
          "name": "name",
          "type": "string"
        }
      ],
      "name": "PropertyAdded",
      "type": "event"
    },
    {
      "anonymous": false,
      "inputs": [
        {
          "indexed": false,
          "internalType": "address",
          "name": "player",
          "type": "address"
        },
        {
          "indexed": false,
          "internalType": "uint256",
          "name": "propertyId",
          "type": "uint256"
        }
      ],
      "name": "PropertyPurchased",
      "type": "event"
    },
    {
      "anonymous": false,
      "inputs": [
        {
          "indexed": true,
          "internalType": "bytes32",
          "name": "role",
          "type": "bytes32"
        },
        {
          "indexed": true,
          "internalType": "bytes32",
          "name": "previousAdminRole",
          "type": "bytes32"
        },
        {
          "indexed": true,
          "internalType": "bytes32",
          "name": "newAdminRole",
          "type": "bytes32"
        }
      ],
      "name": "RoleAdminChanged",
      "type": "event"
    },
    {
      "anonymous": false,
      "inputs": [
        {
          "indexed": true,
          "internalType": "bytes32",
          "name": "role",
          "type": "bytes32"
        },
        {
          "indexed": true,
          "internalType": "address",
          "name": "account",
          "type": "address"
        },
        {
          "indexed": true,
          "internalType": "address",
          "name": "sender",
          "type": "address"
        }
      ],
      "name": "RoleGranted",
      "type": "event"
    },
    {
      "anonymous": false,
      "inputs": [
        {
          "indexed": true,
          "internalType": "bytes32",
          "name": "role",
          "type": "bytes32"
        },
        {
          "indexed": true,
          "internalType": "address",
          "name": "account",
          "type": "address"
        },
        {
          "indexed": true,
          "internalType": "address",
          "name": "sender",
          "type": "address"
        }
      ],
      "name": "RoleRevoked",
      "type": "event"
    },
    {
      "anonymous": false,
      "inputs": [
        {
          "indexed": true,
          "internalType": "address",
          "name": "operator",
          "type": "address"
        },
        {
          "indexed": true,
          "internalType": "address",
          "name": "from",
          "type": "address"
        },
        {
          "indexed": true,
          "internalType": "address",
          "name": "to",
          "type": "address"
        },
        {
          "indexed": false,
          "internalType": "uint256[]",
          "name": "ids",
          "type": "uint256[]"
        },
        {
          "indexed": false,
          "internalType": "uint256[]",
          "name": "values",
          "type": "uint256[]"
        }
      ],
      "name": "TransferBatch",
      "type": "event"
    },
    {
      "anonymous": false,
      "inputs": [
        {
          "indexed": true,
          "internalType": "address",
          "name": "operator",
          "type": "address"
        },
        {
          "indexed": true,
          "internalType": "address",
          "name": "from",
          "type": "address"
        },
        {
          "indexed": true,
          "internalType": "address",
          "name": "to",
          "type": "address"
        },
        {
          "indexed": false,
          "internalType": "uint256",
          "name": "id",
          "type": "uint256"
        },
        {
          "indexed": false,
          "internalType": "uint256",
          "name": "value",
          "type": "uint256"
        }
      ],
      "name": "TransferSingle",
      "type": "event"
    },
    {
      "anonymous": false,
      "inputs": [
        {
          "indexed": false,
          "internalType": "string",
          "name": "value",
          "type": "string"
        },
        {
          "indexed": true,
          "internalType": "uint256",
          "name": "id",
          "type": "uint256"
        }
      ],
      "name": "URI",
      "type": "event"
    },
    {
      "inputs": [],
      "name": "DEFAULT_ADMIN_ROLE",
      "outputs": [
        {
          "internalType": "bytes32",
          "name": "",
          "type": "bytes32"
        }
      ],
      "stateMutability": "view",
      "type": "function"
    },
    {
      "inputs": [],
      "name": "METROPOLIS_MINTER_ROLE",
      "outputs": [
        {
          "internalType": "bytes32",
          "name": "",
          "type": "bytes32"
        }
      ],
      "stateMutability": "view",
      "type": "function"
    },
    {
      "inputs": [],
      "name": "MONOPOLY_MONEY_ID",
      "outputs": [
        {
          "internalType": "uint256",
          "name": "",
          "type": "uint256"
        }
      ],
      "stateMutability": "view",
      "type": "function"
    },
    {
      "inputs": [
        {
          "internalType": "string",
          "name": "name",
          "type": "string"
        },
        {
          "internalType": "uint256",
          "name": "price",
          "type": "uint256"
        },
        {
          "internalType": "uint256[]",
          "name": "rentLevels",
          "type": "uint256[]"
        }
      ],
      "name": "addProperty",
      "outputs": [],
      "stateMutability": "nonpayable",
      "type": "function"
    },
    {
      "inputs": [
        {
          "internalType": "address",
          "name": "account",
          "type": "address"
        },
        {
          "internalType": "uint256",
          "name": "id",
          "type": "uint256"
        }
      ],
      "name": "balanceOf",
      "outputs": [
        {
          "internalType": "uint256",
          "name": "",
          "type": "uint256"
        }
      ],
      "stateMutability": "view",
      "type": "function"
    },
    {
      "inputs": [
        {
          "internalType": "address[]",
          "name": "accounts",
          "type": "address[]"
        },
        {
          "internalType": "uint256[]",
          "name": "ids",
          "type": "uint256[]"
        }
      ],
      "name": "balanceOfBatch",
      "outputs": [
        {
          "internalType": "uint256[]",
          "name": "",
          "type": "uint256[]"
        }
      ],
      "stateMutability": "view",
      "type": "function"
    },
    {
      "inputs": [
        {
          "internalType": "uint256",
          "name": "propertyId",
          "type": "uint256"
        }
      ],
      "name": "buyProperty",
      "outputs": [],
      "stateMutability": "nonpayable",
      "type": "function"
    },
    {
      "inputs": [],
      "name": "getAllProperties",
      "outputs": [
        {
          "components": [
            {
              "internalType": "string",
              "name": "name",
              "type": "string"
            },
            {
              "internalType": "uint256",
              "name": "price",
              "type": "uint256"
            },
            {
              "internalType": "uint256[]",
              "name": "rentLevels",
              "type": "uint256[]"
            }
          ],
          "internalType": "struct Metropolis.Property[]",
          "name": "",
          "type": "tuple[]"
        }
      ],
      "stateMutability": "view",
      "type": "function"
    },
    {
      "inputs": [
        {
          "internalType": "address",
          "name": "player",
          "type": "address"
        }
      ],
      "name": "getMonopolyMoneyBalance",
      "outputs": [
        {
          "internalType": "uint256",
          "name": "",
          "type": "uint256"
        }
      ],
      "stateMutability": "view",
      "type": "function"
    },
    {
      "inputs": [
        {
          "internalType": "uint256",
          "name": "propertyId",
          "type": "uint256"
        }
      ],
      "name": "getProperty",
      "outputs": [
        {
          "components": [
            {
              "internalType": "string",
              "name": "name",
              "type": "string"
            },
            {
              "internalType": "uint256",
              "name": "price",
              "type": "uint256"
            },
            {
              "internalType": "uint256[]",
              "name": "rentLevels",
              "type": "uint256[]"
            }
          ],
          "internalType": "struct Metropolis.Property",
          "name": "",
          "type": "tuple"
        }
      ],
      "stateMutability": "view",
      "type": "function"
    },
    {
      "inputs": [
        {
          "internalType": "uint256",
          "name": "propertyId",
          "type": "uint256"
        },
        {
          "internalType": "uint256",
          "name": "level",
          "type": "uint256"
        }
      ],
      "name": "getRent",
      "outputs": [
        {
          "internalType": "uint256",
          "name": "",
          "type": "uint256"
        }
      ],
      "stateMutability": "view",
      "type": "function"
    },
    {
      "inputs": [
        {
          "internalType": "bytes32",
          "name": "role",
          "type": "bytes32"
        }
      ],
      "name": "getRoleAdmin",
      "outputs": [
        {
          "internalType": "bytes32",
          "name": "",
          "type": "bytes32"
        }
      ],
      "stateMutability": "view",
      "type": "function"
    },
    {
      "inputs": [
        {
          "internalType": "bytes32",
          "name": "role",
          "type": "bytes32"
        },
        {
          "internalType": "address",
          "name": "account",
          "type": "address"
        }
      ],
      "name": "grantRole",
      "outputs": [],
      "stateMutability": "nonpayable",
      "type": "function"
    },
    {
      "inputs": [
        {
          "internalType": "bytes32",
          "name": "role",
          "type": "bytes32"
        },
        {
          "internalType": "address",
          "name": "account",
          "type": "address"
        }
      ],
      "name": "hasRole",
      "outputs": [
        {
          "internalType": "bool",
          "name": "",
          "type": "bool"
        }
      ],
      "stateMutability": "view",
      "type": "function"
    },
    {
      "inputs": [
        {
          "internalType": "address",
          "name": "account",
          "type": "address"
        },
        {
          "internalType": "address",
          "name": "operator",
          "type": "address"
        }
      ],
      "name": "isApprovedForAll",
      "outputs": [
        {
          "internalType": "bool",
          "name": "",
          "type": "bool"
        }
      ],
      "stateMutability": "view",
      "type": "function"
    },
    {
      "inputs": [
        {
          "internalType": "address",
          "name": "to",
          "type": "address"
        },
        {
          "internalType": "uint256",
          "name": "amount",
          "type": "uint256"
        }
      ],
      "name": "mintMonopolyMoney",
      "outputs": [],
      "stateMutability": "nonpayable",
      "type": "function"
    },
    {
      "inputs": [],
      "name": "owner",
      "outputs": [
        {
          "internalType": "address",
          "name": "",
          "type": "address"
        }
      ],
      "stateMutability": "view",
      "type": "function"
    },
    {
      "inputs": [
        {
          "internalType": "uint256",
          "name": "",
          "type": "uint256"
        }
      ],
      "name": "properties",
      "outputs": [
        {
          "internalType": "string",
          "name": "name",
          "type": "string"
        },
        {
          "internalType": "uint256",
          "name": "price",
          "type": "uint256"
        }
      ],
      "stateMutability": "view",
      "type": "function"
    },
    {
      "inputs": [],
      "name": "renounceOwnership",
      "outputs": [],
      "stateMutability": "nonpayable",
      "type": "function"
    },
    {
      "inputs": [
        {
          "internalType": "bytes32",
          "name": "role",
          "type": "bytes32"
        },
        {
          "internalType": "address",
          "name": "callerConfirmation",
          "type": "address"
        }
      ],
      "name": "renounceRole",
      "outputs": [],
      "stateMutability": "nonpayable",
      "type": "function"
    },
    {
      "inputs": [
        {
          "internalType": "bytes32",
          "name": "role",
          "type": "bytes32"
        },
        {
          "internalType": "address",
          "name": "account",
          "type": "address"
        }
      ],
      "name": "revokeRole",
      "outputs": [],
      "stateMutability": "nonpayable",
      "type": "function"
    },
    {
      "inputs": [
        {
          "internalType": "address",
          "name": "from",
          "type": "address"
        },
        {
          "internalType": "address",
          "name": "to",
          "type": "address"
        },
        {
          "internalType": "uint256[]",
          "name": "ids",
          "type": "uint256[]"
        },
        {
          "internalType": "uint256[]",
          "name": "values",
          "type": "uint256[]"
        },
        {
          "internalType": "bytes",
          "name": "data",
          "type": "bytes"
        }
      ],
      "name": "safeBatchTransferFrom",
      "outputs": [],
      "stateMutability": "nonpayable",
      "type": "function"
    },
    {
      "inputs": [
        {
          "internalType": "address",
          "name": "from",
          "type": "address"
        },
        {
          "internalType": "address",
          "name": "to",
          "type": "address"
        },
        {
          "internalType": "uint256",
          "name": "id",
          "type": "uint256"
        },
        {
          "internalType": "uint256",
          "name": "value",
          "type": "uint256"
        },
        {
          "internalType": "bytes",
          "name": "data",
          "type": "bytes"
        }
      ],
      "name": "safeTransferFrom",
      "outputs": [],
      "stateMutability": "nonpayable",
      "type": "function"
    },
    {
      "inputs": [
        {
          "internalType": "address",
          "name": "operator",
          "type": "address"
        },
        {
          "internalType": "bool",
          "name": "approved",
          "type": "bool"
        }
      ],
      "name": "setApprovalForAll",
      "outputs": [],
      "stateMutability": "nonpayable",
      "type": "function"
    },
    {
      "inputs": [
        {
          "internalType": "string",
          "name": "newuri",
          "type": "string"
        }
      ],
      "name": "setURI",
      "outputs": [],
      "stateMutability": "nonpayable",
      "type": "function"
    },
    {
      "inputs": [
        {
          "internalType": "bytes4",
          "name": "interfaceId",
          "type": "bytes4"
        }
      ],
      "name": "supportsInterface",
      "outputs": [
        {
          "internalType": "bool",
          "name": "",
          "type": "bool"
        }
      ],
      "stateMutability": "view",
      "type": "function"
    },
    {
      "inputs": [
        {
          "internalType": "address",
          "name": "newOwner",
          "type": "address"
        }
      ],
      "name": "transferOwnership",
      "outputs": [],
      "stateMutability": "nonpayable",
      "type": "function"
    },
    {
      "inputs": [
        {
          "internalType": "uint256",
          "name": "propertyId",
          "type": "uint256"
        },
        {
          "internalType": "string",
          "name": "name",
          "type": "string"
        },
        {
          "internalType": "uint256",
          "name": "price",
          "type": "uint256"
        },
        {
          "internalType": "uint256[]",
          "name": "rentLevels",
          "type": "uint256[]"
        }
      ],
      "name": "updateProperty",
      "outputs": [],
      "stateMutability": "nonpayable",
      "type": "function"
    },
    {
      "inputs": [
        {
          "internalType": "uint256",
          "name": "",
          "type": "uint256"
        }
      ],
      "name": "uri",
      "outputs": [
        {
          "internalType": "string",
          "name": "",
          "type": "string"
        }
      ],
      "stateMutability": "view",
      "type": "function"
    }
  ],
  "transactionHash": "0x4e8c63a6eb52517394312c7e7571b91fbbce1c0984d73b35780995d88bd377c9",
  "args": [],
  "numDeployments": 1,
  "solcInputHash": "71458144759d7125856a834f18f2cff7",
  "bytecode": "0x608060405260016005553480156200001657600080fd5b50604080518082019091526007815266697066733a2f2f60c81b602082015233906200004281620000b1565b506001600160a01b0381166200007257604051631e4fbdf760e01b81526000600482015260240160405180910390fd5b6200007d81620000c3565b50620000aa7f88592bd859ec73467bb601bed348ec50edf7f514e3272e8cfd9e1d3f5aa0b6773362000115565b506200033b565b6002620000bf82826200026f565b5050565b600380546001600160a01b038381166001600160a01b0319831681179093556040519116919082907f8be0079c531659141344cd1fd0a4f28419497f9722a3daafe3b4186f6b6457e090600090a35050565b60008281526004602090815260408083206001600160a01b038516845290915281205460ff16620001be5760008381526004602090815260408083206001600160a01b03861684529091529020805460ff19166001179055620001753390565b6001600160a01b0316826001600160a01b0316847f2f8788117e7eff1d82e926ec794901d17c78024a50270940304540a733656f0d60405160405180910390a4506001620001c2565b5060005b92915050565b634e487b7160e01b600052604160045260246000fd5b600181811c90821680620001f357607f821691505b6020821081036200021457634e487b7160e01b600052602260045260246000fd5b50919050565b601f8211156200026a576000816000526020600020601f850160051c81016020861015620002455750805b601f850160051c820191505b81811015620002665782815560010162000251565b5050505b505050565b81516001600160401b038111156200028b576200028b620001c8565b620002a3816200029c8454620001de565b846200021a565b602080601f831160018114620002db5760008415620002c25750858301515b600019600386901b1c1916600185901b17855562000266565b600085815260208120601f198616915b828110156200030c57888601518255948401946001909101908401620002eb565b50858210156200032b5787850151600019600388901b60f8161c191681555b5050505050600190811b01905550565b612493806200034b6000396000f3fe608060405234801561001057600080fd5b50600436106101ce5760003560e01c80636fa830a611610104578063c2e09d49116100a2578063eb6fd66f11610071578063eb6fd66f146103ff578063f242432a14610412578063f2fde38b14610425578063f7b108081461043857600080fd5b8063c2e09d49146103c6578063d2fd2fa814610384578063d547741f146103d9578063e985e9c5146103ec57600080fd5b806391d14854116100de57806391d1485414610371578063a217fddf14610384578063a22cb4651461038c578063c00770021461039f57600080fd5b80636fa830a61461033b578063715018a61461034e5780638da5cb5b1461035657600080fd5b80632f2ff15d116101715780633d51402c1161014b5780633d51402c146102e05780633dbdff7b146102f557806341092130146103085780634e1273f41461031b57600080fd5b80632f2ff15d1461029a57806332665ffb146102ad57806336568abe146102cd57600080fd5b80630e89341c116101ad5780630e89341c14610231578063248a9ca3146102515780632de5bc9c146102745780632eb2c2d61461028757600080fd5b8062fdd58e146101d357806301ffc9a7146101f957806302fe53051461021c575b600080fd5b6101e66101e13660046119fd565b610459565b6040519081526020015b60405180910390f35b61020c610207366004611a3d565b610481565b60405190151581526020016101f0565b61022f61022a366004611b18565b61048c565b005b61024461023f366004611b55565b6104a0565b6040516101f09190611bb4565b6101e661025f366004611b55565b60009081526004602052604090206001015490565b61022f610282366004611c5a565b610534565b61022f610295366004611cc7565b6105f0565b61022f6102a8366004611d71565b61065c565b6102c06102bb366004611b55565b610687565b6040516101f09190611e1a565b61022f6102db366004611d71565b61081e565b6102e8610856565b6040516101f09190611e2d565b61022f610303366004611e91565b610a37565b6101e6610316366004611f08565b610b02565b61032e610329366004611f2a565b610bef565b6040516101f09190611fea565b61022f610349366004611b55565b610cbc565b61022f610df2565b6003546040516001600160a01b0390911681526020016101f0565b61020c61037f366004611d71565b610e06565b6101e6600081565b61022f61039a366004611ffd565b610e31565b6101e67f88592bd859ec73467bb601bed348ec50edf7f514e3272e8cfd9e1d3f5aa0b67781565b61022f6103d43660046119fd565b610e40565b61022f6103e7366004611d71565b610ee4565b61020c6103fa366004612039565b610f09565b6101e661040d366004612063565b610f37565b61022f61042036600461207e565b610f44565b61022f610433366004612063565b610fa3565b61044b610446366004611b55565b610fde565b6040516101f09291906120e3565b6000818152602081815260408083206001600160a01b03861684529091529020545b92915050565b600061047b82611082565b6104946110a7565b61049d816110d4565b50565b6060600280546104af90612105565b80601f01602080910402602001604051908101604052809291908181526020018280546104db90612105565b80156105285780601f106104fd57610100808354040283529160200191610528565b820191906000526020600020905b81548152906001019060200180831161050b57829003601f168201915b50505050509050919050565b61053c6110a7565b60058054908190600061054e83612155565b909155505060408051606081018252858152602080820186905281830185905260008481526006909152919091208151819061058a90826121b6565b506020828101516001830155604083015180516105ad9260028501920190611981565b509050507febf63270254042d3527778299325aabb702431e95ad5e9055f4cb3b047ecdccc81856040516105e2929190612276565b60405180910390a150505050565b336001600160a01b0386168114801590610611575061060f8682610f09565b155b156106475760405163711bec9160e11b81526001600160a01b038083166004830152871660248201526044015b60405180910390fd5b61065486868686866110e0565b505050505050565b60008281526004602052604090206001015461067781611147565b6106818383611151565b50505050565b6106ab60405180606001604052806060815260200160008152602001606081525090565b60408051600080825260208083018085528351902086835260069091529083902090926106d8920161228f565b604051602081830303815290604052805190602001200361070b5760405162461bcd60e51b815260040161063e90612305565b6000828152600660205260409081902081516060810190925280548290829061073390612105565b80601f016020809104026020016040519081016040528092919081815260200182805461075f90612105565b80156107ac5780601f10610781576101008083540402835291602001916107ac565b820191906000526020600020905b81548152906001019060200180831161078f57829003601f168201915b50505050508152602001600182015481526020016002820180548060200260200160405190810160405280929190818152602001828054801561080e57602002820191906000526020600020905b8154815260200190600101908083116107fa575b5050505050815250509050919050565b6001600160a01b03811633146108475760405163334bd91960e11b815260040160405180910390fd5b61085182826111e5565b505050565b606060006001600554610869919061233c565b905060008167ffffffffffffffff81111561088657610886611a61565b6040519080825280602002602001820160405280156108db57816020015b6108c860405180606001604052806060815260200160008152602001606081525090565b8152602001906001900390816108a45790505b50905060015b828111610a30576000818152600660205260409081902081516060810190925280548290829061091090612105565b80601f016020809104026020016040519081016040528092919081815260200182805461093c90612105565b80156109895780601f1061095e57610100808354040283529160200191610989565b820191906000526020600020905b81548152906001019060200180831161096c57829003601f168201915b5050505050815260200160018201548152602001600282018054806020026020016040519081016040528092919081815260200182805480156109eb57602002820191906000526020600020905b8154815260200190600101908083116109d7575b50505050508152505082600183610a02919061233c565b81518110610a1257610a1261234f565b60200260200101819052508080610a2890612155565b9150506108e1565b5092915050565b610a3f6110a7565b6040805160008082526020808301808552835190208883526006909152908390209092610a6c920161228f565b6040516020818303038152906040528051906020012003610a9f5760405162461bcd60e51b815260040161063e90612305565b604080516060810182528481526020808201859052818301849052600087815260069091529190912081518190610ad690826121b6565b50602082810151600183015560408301518051610af99260028501920190611981565b50505050505050565b604080516000808252602080830180855283519020868352600690915283822091939092610b3192910161228f565b6040516020818303038152906040528051906020012003610b645760405162461bcd60e51b815260040161063e90612305565b6000838152600660205260409020600201548210610bb95760405162461bcd60e51b8152602060048201526012602482015271125b9d985b1a59081c995b9d081b195d995b60721b604482015260640161063e565b6000838152600660205260409020600201805483908110610bdc57610bdc61234f565b9060005260206000200154905092915050565b60608151835114610c205781518351604051635b05999160e01b81526004810192909252602482015260440161063e565b6000835167ffffffffffffffff811115610c3c57610c3c611a61565b604051908082528060200260200182016040528015610c65578160200160208202803683370190505b50905060005b8451811015610cb457602080820286010151610c8f90602080840287010151610459565b828281518110610ca157610ca161234f565b6020908102919091010152600101610c6b565b509392505050565b6040805160008082526020808301808552835190208583526006909152908390209092610ce9920161228f565b6040516020818303038152906040528051906020012003610d1c5760405162461bcd60e51b815260040161063e90612305565b60008181526006602052604081206001015490610d3a903390610459565b1015610d7d5760405162461bcd60e51b8152602060048201526012602482015271496e73756666696369656e742066756e647360701b604482015260640161063e565b600081815260066020526040812060010154610d9a913391611252565b610db633826001604051806020016040528060008152506112ba565b60408051338152602081018390527f3c0cade9d270c0005f089d49842bd35076264614be1ca87be18f996825d9e07c910160405180910390a150565b610dfa6110a7565b610e046000611317565b565b60009182526004602090815260408084206001600160a01b0393909316845291905290205460ff1690565b610e3c338383611369565b5050565b610e6a7f88592bd859ec73467bb601bed348ec50edf7f514e3272e8cfd9e1d3f5aa0b67733610e06565b610ec85760405162461bcd60e51b815260206004820152602960248201527f4d6574726f706f6c69733a206d7573742068617665206d696e74657220726f6c60448201526819481d1bc81b5a5b9d60ba1b606482015260840161063e565b610e3c82600083604051806020016040528060008152506112ba565b600082815260046020526040902060010154610eff81611147565b61068183836111e5565b6001600160a01b03918216600090815260016020908152604080832093909416825291909152205460ff1690565b600061047b826000610459565b336001600160a01b0386168114801590610f655750610f638682610f09565b155b15610f965760405163711bec9160e11b81526001600160a01b0380831660048301528716602482015260440161063e565b61065486868686866113ff565b610fab6110a7565b6001600160a01b038116610fd557604051631e4fbdf760e01b81526000600482015260240161063e565b61049d81611317565b600660205260009081526040902080548190610ff990612105565b80601f016020809104026020016040519081016040528092919081815260200182805461102590612105565b80156110725780601f1061104757610100808354040283529160200191611072565b820191906000526020600020905b81548152906001019060200180831161105557829003601f168201915b5050505050908060010154905082565b60006001600160e01b03198216637965db0b60e01b148061047b575061047b82611484565b6003546001600160a01b03163314610e045760405163118cdaa760e01b815233600482015260240161063e565b6002610e3c82826121b6565b6001600160a01b03841661110a57604051632bfa23e760e11b81526000600482015260240161063e565b6001600160a01b03851661113357604051626a0d4560e21b81526000600482015260240161063e565b61114085858585856114d4565b5050505050565b61049d8133611527565b600061115d8383610e06565b6111dd5760008381526004602090815260408083206001600160a01b03861684529091529020805460ff191660011790556111953390565b6001600160a01b0316826001600160a01b0316847f2f8788117e7eff1d82e926ec794901d17c78024a50270940304540a733656f0d60405160405180910390a450600161047b565b50600061047b565b60006111f18383610e06565b156111dd5760008381526004602090815260408083206001600160a01b0386168085529252808320805460ff1916905551339286917ff6391f5c32d9c69d2a47ea670b442974b53935d1edc7fd64eb21e047a839171b9190a450600161047b565b6001600160a01b03831661127b57604051626a0d4560e21b81526000600482015260240161063e565b604080516001808252602082018590528183019081526060820184905260a08201909252600060808201818152919291611140918791859085906114d4565b6001600160a01b0384166112e457604051632bfa23e760e11b81526000600482015260240161063e565b604080516001808252602082018690528183019081526060820185905260808201909252906106546000878484876114d4565b600380546001600160a01b038381166001600160a01b0319831681179093556040519116919082907f8be0079c531659141344cd1fd0a4f28419497f9722a3daafe3b4186f6b6457e090600090a35050565b6001600160a01b0382166113925760405162ced3e160e81b81526000600482015260240161063e565b6001600160a01b03838116600081815260016020908152604080832094871680845294825291829020805460ff191686151590811790915591519182527f17307eab39ab6107e8899845ad3d59bd9653f200f220920489ca2b5937696c31910160405180910390a3505050565b6001600160a01b03841661142957604051632bfa23e760e11b81526000600482015260240161063e565b6001600160a01b03851661145257604051626a0d4560e21b81526000600482015260240161063e565b60408051600180825260208201869052818301908152606082018590526080820190925290610af987878484876114d4565b60006001600160e01b03198216636cdb3d1360e11b14806114b557506001600160e01b031982166303a24d0760e21b145b8061047b57506301ffc9a760e01b6001600160e01b031983161461047b565b6114e085858585611560565b6001600160a01b0384161561114057825133906001036115195760208481015190840151611512838989858589611774565b5050610654565b610654818787878787611898565b6115318282610e06565b610e3c5760405163e2517d3f60e01b81526001600160a01b03821660048201526024810183905260440161063e565b805182511461158f5781518151604051635b05999160e01b81526004810192909252602482015260440161063e565b3360005b8351811015611695576020818102858101820151908501909101516001600160a01b03881615611646576000828152602081815260408083206001600160a01b038c1684529091529020548181101561161f576040516303dee4c560e01b81526001600160a01b038a16600482015260248101829052604481018390526064810184905260840161063e565b6000838152602081815260408083206001600160a01b038d16845290915290209082900390555b6001600160a01b0387161561168b576000828152602081815260408083206001600160a01b038b16845290915281208054839290611685908490612365565b90915550505b5050600101611593565b5082516001036117165760208301516000906020840151909150856001600160a01b0316876001600160a01b0316846001600160a01b03167fc3d58168c5ae7397731d063d5bbf3d657854427343f4c083240f7aacaa2d0f628585604051611707929190918252602082015260400190565b60405180910390a45050611140565b836001600160a01b0316856001600160a01b0316826001600160a01b03167f4a39dc06d4c0dbc64b70af90fd698a233a518aa5d07e595d983b8c0526c8f7fb8686604051611765929190612378565b60405180910390a45050505050565b6001600160a01b0384163b156106545760405163f23a6e6160e01b81526001600160a01b0385169063f23a6e61906117b8908990899088908890889060040161239d565b6020604051808303816000875af19250505080156117f3575060408051601f3d908101601f191682019092526117f0918101906123e2565b60015b61185c573d808015611821576040519150601f19603f3d011682016040523d82523d6000602084013e611826565b606091505b50805160000361185457604051632bfa23e760e11b81526001600160a01b038616600482015260240161063e565b805181602001fd5b6001600160e01b0319811663f23a6e6160e01b14610af957604051632bfa23e760e11b81526001600160a01b038616600482015260240161063e565b6001600160a01b0384163b156106545760405163bc197c8160e01b81526001600160a01b0385169063bc197c81906118dc90899089908890889088906004016123ff565b6020604051808303816000875af1925050508015611917575060408051601f3d908101601f19168201909252611914918101906123e2565b60015b611945573d808015611821576040519150601f19603f3d011682016040523d82523d6000602084013e611826565b6001600160e01b0319811663bc197c8160e01b14610af957604051632bfa23e760e11b81526001600160a01b038616600482015260240161063e565b8280548282559060005260206000209081019282156119bc579160200282015b828111156119bc5782518255916020019190600101906119a1565b506119c89291506119cc565b5090565b5b808211156119c857600081556001016119cd565b80356001600160a01b03811681146119f857600080fd5b919050565b60008060408385031215611a1057600080fd5b611a19836119e1565b946020939093013593505050565b6001600160e01b03198116811461049d57600080fd5b600060208284031215611a4f57600080fd5b8135611a5a81611a27565b9392505050565b634e487b7160e01b600052604160045260246000fd5b604051601f8201601f1916810167ffffffffffffffff81118282101715611aa057611aa0611a61565b604052919050565b600082601f830112611ab957600080fd5b813567ffffffffffffffff811115611ad357611ad3611a61565b611ae6601f8201601f1916602001611a77565b818152846020838601011115611afb57600080fd5b816020850160208301376000918101602001919091529392505050565b600060208284031215611b2a57600080fd5b813567ffffffffffffffff811115611b4157600080fd5b611b4d84828501611aa8565b949350505050565b600060208284031215611b6757600080fd5b5035919050565b6000815180845260005b81811015611b9457602081850181015186830182015201611b78565b506000602082860101526020601f19601f83011685010191505092915050565b602081526000611a5a6020830184611b6e565b600067ffffffffffffffff821115611be157611be1611a61565b5060051b60200190565b600082601f830112611bfc57600080fd5b81356020611c11611c0c83611bc7565b611a77565b8083825260208201915060208460051b870101935086841115611c3357600080fd5b602086015b84811015611c4f5780358352918301918301611c38565b509695505050505050565b600080600060608486031215611c6f57600080fd5b833567ffffffffffffffff80821115611c8757600080fd5b611c9387838801611aa8565b9450602086013593506040860135915080821115611cb057600080fd5b50611cbd86828701611beb565b9150509250925092565b600080600080600060a08688031215611cdf57600080fd5b611ce8866119e1565b9450611cf6602087016119e1565b9350604086013567ffffffffffffffff80821115611d1357600080fd5b611d1f89838a01611beb565b94506060880135915080821115611d3557600080fd5b611d4189838a01611beb565b93506080880135915080821115611d5757600080fd5b50611d6488828901611aa8565b9150509295509295909350565b60008060408385031215611d8457600080fd5b82359150611d94602084016119e1565b90509250929050565b60008151808452602080850194506020840160005b83811015611dce57815187529582019590820190600101611db2565b509495945050505050565b6000815160608452611dee6060850182611b6e565b90506020830151602085015260408301518482036040860152611e118282611d9d565b95945050505050565b602081526000611a5a6020830184611dd9565b600060208083016020845280855180835260408601915060408160051b87010192506020870160005b82811015611e8457603f19888603018452611e72858351611dd9565b94509285019290850190600101611e56565b5092979650505050505050565b60008060008060808587031215611ea757600080fd5b84359350602085013567ffffffffffffffff80821115611ec657600080fd5b611ed288838901611aa8565b9450604087013593506060870135915080821115611eef57600080fd5b50611efc87828801611beb565b91505092959194509250565b60008060408385031215611f1b57600080fd5b50508035926020909101359150565b60008060408385031215611f3d57600080fd5b823567ffffffffffffffff80821115611f5557600080fd5b818501915085601f830112611f6957600080fd5b81356020611f79611c0c83611bc7565b82815260059290921b84018101918181019089841115611f9857600080fd5b948201945b83861015611fbd57611fae866119e1565b82529482019490820190611f9d565b96505086013592505080821115611fd357600080fd5b50611fe085828601611beb565b9150509250929050565b602081526000611a5a6020830184611d9d565b6000806040838503121561201057600080fd5b612019836119e1565b91506020830135801515811461202e57600080fd5b809150509250929050565b6000806040838503121561204c57600080fd5b612055836119e1565b9150611d94602084016119e1565b60006020828403121561207557600080fd5b611a5a826119e1565b600080600080600060a0868803121561209657600080fd5b61209f866119e1565b94506120ad602087016119e1565b93506040860135925060608601359150608086013567ffffffffffffffff8111156120d757600080fd5b611d6488828901611aa8565b6040815260006120f66040830185611b6e565b90508260208301529392505050565b600181811c9082168061211957607f821691505b60208210810361213957634e487b7160e01b600052602260045260246000fd5b50919050565b634e487b7160e01b600052601160045260246000fd5b6000600182016121675761216761213f565b5060010190565b601f821115610851576000816000526020600020601f850160051c810160208610156121975750805b601f850160051c820191505b81811015610654578281556001016121a3565b815167ffffffffffffffff8111156121d0576121d0611a61565b6121e4816121de8454612105565b8461216e565b602080601f83116001811461221957600084156122015750858301515b600019600386901b1c1916600185901b178555610654565b600085815260208120601f198616915b8281101561224857888601518255948401946001909101908401612229565b50858210156122665787850151600019600388901b60f8161c191681555b5050505050600190811b01905550565b828152604060208201526000611b4d6040830184611b6e565b600080835461229d81612105565b600182811680156122b557600181146122ca576122f9565b60ff19841687528215158302870194506122f9565b8760005260208060002060005b858110156122f05781548a8201529084019082016122d7565b50505082870194505b50929695505050505050565b60208082526017908201527f50726f706572747920646f6573206e6f74206578697374000000000000000000604082015260600190565b8181038181111561047b5761047b61213f565b634e487b7160e01b600052603260045260246000fd5b8082018082111561047b5761047b61213f565b60408152600061238b6040830185611d9d565b8281036020840152611e118185611d9d565b6001600160a01b03868116825285166020820152604081018490526060810183905260a0608082018190526000906123d790830184611b6e565b979650505050505050565b6000602082840312156123f457600080fd5b8151611a5a81611a27565b6001600160a01b0386811682528516602082015260a06040820181905260009061242b90830186611d9d565b828103606084015261243d8186611d9d565b905082810360808401526124518185611b6e565b9897505050505050505056fea264697066735822122093f98dfd6aa8f549b63f773fa13fbbd335afbd0a6b6ccba46aed580a6e7e5e8864736f6c63430008180033",
  "devdoc": {
    "errors": {
      "AccessControlBadConfirmation()": [
        {
          "details": "The caller of a function is not the expected one. NOTE: Don't confuse with {AccessControlUnauthorizedAccount}."
        }
      ],
      "AccessControlUnauthorizedAccount(address,bytes32)": [
        {
          "details": "The `account` is missing a role."
        }
      ],
      "ERC1155InsufficientBalance(address,uint256,uint256,uint256)": [
        {
          "details": "Indicates an error related to the current `balance` of a `sender`. Used in transfers.",
          "params": {
            "balance": "Current balance for the interacting account.",
            "needed": "Minimum amount required to perform a transfer.",
            "sender": "Address whose tokens are being transferred.",
            "tokenId": "Identifier number of a token."
          }
        }
      ],
      "ERC1155InvalidApprover(address)": [
        {
          "details": "Indicates a failure with the `approver` of a token to be approved. Used in approvals.",
          "params": {
            "approver": "Address initiating an approval operation."
          }
        }
      ],
      "ERC1155InvalidArrayLength(uint256,uint256)": [
        {
          "details": "Indicates an array length mismatch between ids and values in a safeBatchTransferFrom operation. Used in batch transfers.",
          "params": {
            "idsLength": "Length of the array of token identifiers",
            "valuesLength": "Length of the array of token amounts"
          }
        }
      ],
      "ERC1155InvalidOperator(address)": [
        {
          "details": "Indicates a failure with the `operator` to be approved. Used in approvals.",
          "params": {
            "operator": "Address that may be allowed to operate on tokens without being their owner."
          }
        }
      ],
      "ERC1155InvalidReceiver(address)": [
        {
          "details": "Indicates a failure with the token `receiver`. Used in transfers.",
          "params": {
            "receiver": "Address to which tokens are being transferred."
          }
        }
      ],
      "ERC1155InvalidSender(address)": [
        {
          "details": "Indicates a failure with the token `sender`. Used in transfers.",
          "params": {
            "sender": "Address whose tokens are being transferred."
          }
        }
      ],
      "ERC1155MissingApprovalForAll(address,address)": [
        {
          "details": "Indicates a failure with the `operator`s approval. Used in transfers.",
          "params": {
            "operator": "Address that may be allowed to operate on tokens without being their owner.",
            "owner": "Address of the current owner of a token."
          }
        }
      ],
      "OwnableInvalidOwner(address)": [
        {
          "details": "The owner is not a valid owner account. (eg. `address(0)`)"
        }
      ],
      "OwnableUnauthorizedAccount(address)": [
        {
          "details": "The caller account is not authorized to perform an operation."
        }
      ]
    },
    "events": {
      "ApprovalForAll(address,address,bool)": {
        "details": "Emitted when `account` grants or revokes permission to `operator` to transfer their tokens, according to `approved`."
      },
      "RoleAdminChanged(bytes32,bytes32,bytes32)": {
        "details": "Emitted when `newAdminRole` is set as ``role``'s admin role, replacing `previousAdminRole` `DEFAULT_ADMIN_ROLE` is the starting admin for all roles, despite {RoleAdminChanged} not being emitted signaling this."
      },
      "RoleGranted(bytes32,address,address)": {
        "details": "Emitted when `account` is granted `role`. `sender` is the account that originated the contract call. This account bears the admin role (for the granted role). Expected in cases where the role was granted using the internal {AccessControl-_grantRole}."
      },
      "RoleRevoked(bytes32,address,address)": {
        "details": "Emitted when `account` is revoked `role`. `sender` is the account that originated the contract call:   - if using `revokeRole`, it is the admin role bearer   - if using `renounceRole`, it is the role bearer (i.e. `account`)"
      },
      "TransferBatch(address,address,address,uint256[],uint256[])": {
        "details": "Equivalent to multiple {TransferSingle} events, where `operator`, `from` and `to` are the same for all transfers."
      },
      "TransferSingle(address,address,address,uint256,uint256)": {
        "details": "Emitted when `value` amount of tokens of type `id` are transferred from `from` to `to` by `operator`."
      },
      "URI(string,uint256)": {
        "details": "Emitted when the URI for token type `id` changes to `value`, if it is a non-programmatic URI. If an {URI} event was emitted for `id`, the standard https://eips.ethereum.org/EIPS/eip-1155#metadata-extensions[guarantees] that `value` will equal the value returned by {IERC1155MetadataURI-uri}."
      }
    },
    "kind": "dev",
    "methods": {
      "balanceOf(address,uint256)": {
        "details": "See {IERC1155-balanceOf}."
      },
      "balanceOfBatch(address[],uint256[])": {
        "details": "See {IERC1155-balanceOfBatch}. Requirements: - `accounts` and `ids` must have the same length."
      },
      "getRoleAdmin(bytes32)": {
        "details": "Returns the admin role that controls `role`. See {grantRole} and {revokeRole}. To change a role's admin, use {_setRoleAdmin}."
      },
      "grantRole(bytes32,address)": {
        "details": "Grants `role` to `account`. If `account` had not been already granted `role`, emits a {RoleGranted} event. Requirements: - the caller must have ``role``'s admin role. May emit a {RoleGranted} event."
      },
      "hasRole(bytes32,address)": {
        "details": "Returns `true` if `account` has been granted `role`."
      },
      "isApprovedForAll(address,address)": {
        "details": "See {IERC1155-isApprovedForAll}."
      },
      "owner()": {
        "details": "Returns the address of the current owner."
      },
      "renounceOwnership()": {
        "details": "Leaves the contract without owner. It will not be possible to call `onlyOwner` functions. Can only be called by the current owner. NOTE: Renouncing ownership will leave the contract without an owner, thereby disabling any functionality that is only available to the owner."
      },
      "renounceRole(bytes32,address)": {
        "details": "Revokes `role` from the calling account. Roles are often managed via {grantRole} and {revokeRole}: this function's purpose is to provide a mechanism for accounts to lose their privileges if they are compromised (such as when a trusted device is misplaced). If the calling account had been revoked `role`, emits a {RoleRevoked} event. Requirements: - the caller must be `callerConfirmation`. May emit a {RoleRevoked} event."
      },
      "revokeRole(bytes32,address)": {
        "details": "Revokes `role` from `account`. If `account` had been granted `role`, emits a {RoleRevoked} event. Requirements: - the caller must have ``role``'s admin role. May emit a {RoleRevoked} event."
      },
      "safeBatchTransferFrom(address,address,uint256[],uint256[],bytes)": {
        "details": "See {IERC1155-safeBatchTransferFrom}."
      },
      "safeTransferFrom(address,address,uint256,uint256,bytes)": {
        "details": "See {IERC1155-safeTransferFrom}."
      },
      "setApprovalForAll(address,bool)": {
        "details": "See {IERC1155-setApprovalForAll}."
      },
      "transferOwnership(address)": {
        "details": "Transfers ownership of the contract to a new account (`newOwner`). Can only be called by the current owner."
      },
      "uri(uint256)": {
        "details": "See {IERC1155MetadataURI-uri}. This implementation returns the same URI for *all* token types. It relies on the token type ID substitution mechanism https://eips.ethereum.org/EIPS/eip-1155#metadata[defined in the ERC]. Clients calling this function must replace the `\\{id\\}` substring with the actual token type ID."
      }
    },
    "version": 1
  },
  "userdoc": {
    "kind": "user",
    "methods": {},
    "version": 1
  },
  "storageLayout": {
    "storage": [
      {
        "astId": 705,
        "contract": "contracts/Metropolis.sol:Metropolis",
        "label": "_balances",
        "offset": 0,
        "slot": "0",
        "type": "t_mapping(t_uint256,t_mapping(t_address,t_uint256))"
      },
      {
        "astId": 711,
        "contract": "contracts/Metropolis.sol:Metropolis",
        "label": "_operatorApprovals",
        "offset": 0,
        "slot": "1",
        "type": "t_mapping(t_address,t_mapping(t_address,t_bool))"
      },
      {
        "astId": 713,
        "contract": "contracts/Metropolis.sol:Metropolis",
        "label": "_uri",
        "offset": 0,
        "slot": "2",
        "type": "t_string_storage"
      },
      {
        "astId": 387,
        "contract": "contracts/Metropolis.sol:Metropolis",
        "label": "_owner",
        "offset": 0,
        "slot": "3",
        "type": "t_address"
      },
      {
        "astId": 26,
        "contract": "contracts/Metropolis.sol:Metropolis",
        "label": "_roles",
        "offset": 0,
        "slot": "4",
        "type": "t_mapping(t_bytes32,t_struct(RoleData)21_storage)"
      },
      {
        "astId": 6587,
        "contract": "contracts/Metropolis.sol:Metropolis",
        "label": "_currentTokenId",
        "offset": 0,
        "slot": "5",
        "type": "t_uint256"
      },
      {
        "astId": 6603,
        "contract": "contracts/Metropolis.sol:Metropolis",
        "label": "properties",
        "offset": 0,
        "slot": "6",
        "type": "t_mapping(t_uint256,t_struct(Property)6598_storage)"
      }
    ],
    "types": {
      "t_address": {
        "encoding": "inplace",
        "label": "address",
        "numberOfBytes": "20"
      },
      "t_array(t_uint256)dyn_storage": {
        "base": "t_uint256",
        "encoding": "dynamic_array",
        "label": "uint256[]",
        "numberOfBytes": "32"
      },
      "t_bool": {
        "encoding": "inplace",
        "label": "bool",
        "numberOfBytes": "1"
      },
      "t_bytes32": {
        "encoding": "inplace",
        "label": "bytes32",
        "numberOfBytes": "32"
      },
      "t_mapping(t_address,t_bool)": {
        "encoding": "mapping",
        "key": "t_address",
        "label": "mapping(address => bool)",
        "numberOfBytes": "32",
        "value": "t_bool"
      },
      "t_mapping(t_address,t_mapping(t_address,t_bool))": {
        "encoding": "mapping",
        "key": "t_address",
        "label": "mapping(address => mapping(address => bool))",
        "numberOfBytes": "32",
        "value": "t_mapping(t_address,t_bool)"
      },
      "t_mapping(t_address,t_uint256)": {
        "encoding": "mapping",
        "key": "t_address",
        "label": "mapping(address => uint256)",
        "numberOfBytes": "32",
        "value": "t_uint256"
      },
      "t_mapping(t_bytes32,t_struct(RoleData)21_storage)": {
        "encoding": "mapping",
        "key": "t_bytes32",
        "label": "mapping(bytes32 => struct AccessControl.RoleData)",
        "numberOfBytes": "32",
        "value": "t_struct(RoleData)21_storage"
      },
      "t_mapping(t_uint256,t_mapping(t_address,t_uint256))": {
        "encoding": "mapping",
        "key": "t_uint256",
        "label": "mapping(uint256 => mapping(address => uint256))",
        "numberOfBytes": "32",
        "value": "t_mapping(t_address,t_uint256)"
      },
      "t_mapping(t_uint256,t_struct(Property)6598_storage)": {
        "encoding": "mapping",
        "key": "t_uint256",
        "label": "mapping(uint256 => struct Metropolis.Property)",
        "numberOfBytes": "32",
        "value": "t_struct(Property)6598_storage"
      },
      "t_string_storage": {
        "encoding": "bytes",
        "label": "string",
        "numberOfBytes": "32"
      },
      "t_struct(Property)6598_storage": {
        "encoding": "inplace",
        "label": "struct Metropolis.Property",
        "members": [
          {
            "astId": 6592,
            "contract": "contracts/Metropolis.sol:Metropolis",
            "label": "name",
            "offset": 0,
            "slot": "0",
            "type": "t_string_storage"
          },
          {
            "astId": 6594,
            "contract": "contracts/Metropolis.sol:Metropolis",
            "label": "price",
            "offset": 0,
            "slot": "1",
            "type": "t_uint256"
          },
          {
            "astId": 6597,
            "contract": "contracts/Metropolis.sol:Metropolis",
            "label": "rentLevels",
            "offset": 0,
            "slot": "2",
            "type": "t_array(t_uint256)dyn_storage"
          }
        ],
        "numberOfBytes": "96"
      },
      "t_struct(RoleData)21_storage": {
        "encoding": "inplace",
        "label": "struct AccessControl.RoleData",
        "members": [
          {
            "astId": 18,
            "contract": "contracts/Metropolis.sol:Metropolis",
            "label": "hasRole",
            "offset": 0,
            "slot": "0",
            "type": "t_mapping(t_address,t_bool)"
          },
          {
            "astId": 20,
            "contract": "contracts/Metropolis.sol:Metropolis",
            "label": "adminRole",
            "offset": 0,
            "slot": "1",
            "type": "t_bytes32"
          }
        ],
        "numberOfBytes": "64"
      },
      "t_uint256": {
        "encoding": "inplace",
        "label": "uint256",
        "numberOfBytes": "32"
      }
    }
  }
}